:0300000002E38791
:0CE38700787FE4F6D8FD75812002E3CE1B
:10000300BC549E93BC7FAD42BC8EF238BCA290D749
:10001300BCB4C642BCC7A31ABCDA273EBCE9214F15
:10002300BCF839A9BD04E04FBD0AD6CDBD12A00965
:10003300BD18F523BD1DCB43BD2416F5BD27A83C34
:10004300BD2F137BBD329068BD37D559BD3BAC6620
:10005300BD3F104CBD418477BD4369B4BD460441E7
:10006300BD498AB9BD4B4368BD4C3CC6BD4D99A93A
:10007300BD4E4475BD4FD8C7BD5208CABD5229767F
:10008300BD505DEABD522D63BD51C12FBD53143E1A
:10009300BD52594FBD5076CABD51FDDDBD4FB29122
:1000A3003D43044A3D3789493D2C6F9E3D21B012A3
:1000B3003D18C60D3D1068173D07D9523D01BF9449
:1000C3003CF81B0F3CEDF7B33CE750943CE1FA8E50
:1000D3003CDEC9B83CDE9CD83CE01B8D3CE2BE1D37
:1000E3003CE88A403CEF62863CFA8A6D3D02D92E99
:1000F3003D0914D73D0F8F4B3D1821B83D20A1700A
:100103003D2979513D3228053D3BB0DE3D458CB953
:100113003D4F00733D583CE03D616F823D6A9E8BCD
:100123003D732F333D7BD3E53D8178D93D8539EE52
:100133003D87B7373D8A82683D8BD6763D8CFC235D
:10014300BCF9656DBD0390B8BD0E0857BD150723F7
:10015300BD1B5AB8BD21853BBD23FA2FBD2CA04D35
:10016300BD2D89F4BD323824BD3423B3BD34C81D3D
:10017300BD369CADBD36E3EEBD3AE2FFBD36B6E813
:10018300BD389991BD337373BD2EFCBBBD2A883333
:10019300BD28956DBD235802BD1C9840BD17466D03
:1001A300BD0DBF97BD06B38CBD00A7FDBCE83029CC
:1001B300BCD35DCFBCC4C5FBBCA9AB5DBC994C35FE
:1001C300BC7D5C6CBC4A0195BC0ECEACBBC10AD5F0
:1001D300BB2ACB5B3A05205D3B9B0ACD3BEFAAEBE9
:1001E3003C09782F3D0200E93CFA2DF73BABA89F71
:1001F3003CB7EAFCBB68B1493C9F4C753BCA10D481
:10020300BC5B91043C28E46BBB9F38F339DB19FEDC
:100213003B5ABE6C3B4D1405BC8CB850BBA6A833EF
:10022300BCB6D1BEBCA24EF2BBCFEA5DBC90396A6C
:10023300BCC35CB9BBF14957BCB5E7F3BCDBCD2A02
:10024300BC40DC55BC281FEABCB3BA70BC801D8718
:10025300BC47012BBC8B2C98BC9D8DE5BC0BAC65BE
:100263003C1BDF5339E497DE3C09D0E0BC308036D9
:10027300BBF59054BB9643303C8486713B83028329
:10028300BD39B950BD2C3337BD0D60CBBD335AB426
:10029300BD363127BCE8FDBEBD0B5C7DBCB3FD6F35
:1002A300BD18B6ABBD0218F9BCE6F692BCA23E403F
:1002B300BB5D1FC5BC1F3D0EBC470543BC468EB787
:1002C300BC07053CBA31645E3B1183393B2D22DB0D
:1002D3003CAFC8AA3C8173483C75756A3CBCD67E6A
:1002E3003CF1C8583D19C5C83D12609A3D30980588
:1002F3003D34E8B33D5E0D8F3D2F4ACB3D31FCA924
:100303003D3B144F3D7B2B7D3D87391C3D96D4509F
:100313003D9CE3AB3D8D93B13D98AC593DA1DB8052
:10032300BDBB8136BDB42D00BDAB6535BDA67DEA31
:10033300BD9F58FBBD9B3C08BD943CB3BD9196B794
:10034300BD8C57D2BD892F53BD86EA22BD84576128
:10035300BD82143CBD81371ABD81534BBD81C38A15
:10036300BD8199E5BD8385C8BD860ED7BD88FC4B8D
:10037300BD8BB07FBD91625EBD95FADDBD9AF8334A
:10038300BDA04DA8BDA7B1E7BDAF95FBBDB62EFF80
:10039300BDBE70CCBDC67F61BDD14E5DBDDB9128B6
:1003A300BDE540D4BDEF620EBDF9AFDBBE023363E2
:1003B300BE075B06BE0D99FABE1408DFBE18F7D35D
:1003C3003D4544173D537EDF3D5539923D63688C6F
:1003D3003D5FC2B73D7273DB3D79AF923D873D0B05
:1003E3003D8CF3903D8D1C163D8094D93D8E244E5B
:1003F3003D916DA43D80FADA3D89FFAE3D80B43C6A
:100403003D7F666B3D5D25693D6CE2E93D4392C0EE
:100413003D33E1B63D2D12A13D3166793D0E653C7C
:100423003D09EE7A3CC4320B3C826CA73BE8F2CF29
:100433003B2CEA1DBB475685BC452009BCC1D330C4
:10044300BCE41D18BD0B20A4BD3EBAA2BD45BB9E96
:10045300BD815EEFBD8D121FBDAF6248BDC4C94AE9
:100463003D978EC23DA470113DB090CF3DBB6FEB65
:100473003DC5A3B33DCF5F9A3DD6F9153DDF1A6E57
:100483003DE4D2013DEA68EC3DEE449B3DF210961B
:100493003DF4547A3DF5CFBD3DF634383DF5FB4D83
:1004A3003DF47B7E3DF2C6753DF004033DEC73C322
:1004B3003DE840733DE33E783DDDB78F3DD78F0088
:1004C3003DD0BD813DC9577F3DC161023DB8E7566F
:1004D3003DAFEC263DA670BD3D9C63913D9203F478
:1004E3003D8716373D7760193D5FCCC03D472E24CD
:1004F3003D2DE1E63D1345253CF054803CB8892170
:10050300BCDEAA23BCD858BFBCB71F48BC9CF3723F
:10051300BCC13705BCB14AF1BC689FF7BC74058404
:10052300BC740748BBE6DF61BBD78E11BC01D0BBEF
:10053300BB06B81ABB81FB693B539FA53B8F8DBAA2
:100543003BA52DEF3C0F3DDE3C33D6813C5F9DDE6A
:100553003C9B324E3C9827F83CA2913E3CD6ED1B87
:100563003CCE5B903CE80E4A3D0399473D027D40FB
:100573003D1549FE3D1813563D2284183D355AE773
:100583003D31CE703D3F49FD3D3683A23D4C0E8D3E
:100593003D5143E03D4DB4FB3D4FD7473D5B77961F
:1005A3003D2649A93D35AEE13D450D8F3D5468C813
:1005B3003D637C723D7276CA3D8091653D87C0661E
:1005C3003D8EC9463D95A8363D9C30CC3DA2B4072F
:1005D3003DA8D0E23DAEB4F63DB435333DB99CD32E
:1005E3003DBE99A03DC324223DC786953DCB8337AD
:1005F3003DCF0FED3DD262A43DD563A53DD8017A31
:100603003DDA350E3DDC29683DDDBE7E3DDEF1EF92
:100613003DDFD4A63DE094CA3DE111653DE11C8078
:100623003DE116BD3DE0CF993DE0343A3DDF69C978
:100633003DDE982F3DDDAF143DDC92653DDB51C2BD
:10064300BCA0512FBCAC8573BCB8573FBCC5BE1F03
:10065300BCD30CF5BCE06E8FBCEDAC42BCFC24C734
:10066300BD05B3E2BD0CFE1BBD15362FBD1D329A71
:10067300BD25597CBD2E167DBD36BD0EBD40ADF4E6
:10068300BD4A0459BD545999BD5ECF07BD69E064A5
:10069300BD7588ABBD808AB8BD86E232BD8DA56FBE
:1006A300BD9468C3BD9BCFD5BDA2F1A1BDAB326ED6
:1006B300BDB3508DBDBBBF0BBDC4F2F4BDCE6AE567
:1006C300BDD7A872BDE1BB4DBDEC7939BDF720B3F1
:1006D300BE011073BE068EC6BE0C7FDABE1251EC8D
:1006E3003CD4F7CA3C9A45073C6EEF913C5145D840
:1006F3003C2C7F4F3B80C8DB3B264D69BB138CFFF3
:10070300BB1C4D28BC0287ADBC02E4E1BC3C72C2F9
:10071300BC7CE115BC82CBAEBC8A1B8ABC9C3293E9
:10072300BCB27FB2BCADEDBDBCB1EABDBCC34B3EF8
:10073300BCC329F0BCD3FA35BCC2E234BCC127998F
:10074300BCD09002BCC8C648BCBBAA18BCB8D60172
:10075300BCB32BBBBC967A88BC97B6EBBC95FFA702
:10076300BC6453EABC585664BC29B792BC25F5FC5B
:10077300BBCB5BD2BB90A0DEB9D5901D3B01382427
:10078300BCB8EC50BCAD5B99BC40B5BBBC08C2AFB8
:10079300BC58C53BBC708646BBC41BBDBBCFEBF18D
:1007A3003A8BCEF83B07DE4E3B96B88BBB15918454
:1007B3003BC93F0836893CD5BB8B44E2BBD5C2302D
:1007C300BAE19A42BB871306BBF8EAF6BB0AE41701
:1007D3003ABA1AEE3AD2FFB1BBAAE40DBC0BD94D1B
:1007E300BBA7B840BC839EAFBC31C602BCA9097984
:1007F300BC78C488BCB78D23BCBD35DFBCF6498A41
:10080300BD2BFC20BD3F8790BD544BBDBD526F6BCC
:10081300BD5C01A9BD827A39BD857E72BDA2B36478
:100823003D79C26D3D42B5AE3D2AABB93CD17B6744
:100833003CC02F413BF4FF463B829ED2BC13DA649B
:10084300BC1D4058BCAB7946BCC1BFFCBCED347782
:10085300BD28652ABD2C09ACBD514CCEBD3C2A46F2
:10086300BD6E73B1BD694FF1BD6A7C3DBD7323CFCE
:10087300BD772991BD721B2FBD5E1CB8BD441C1FE3
:10088300BD4710ABBD314F3EBD1F08A4BD169684B6
:10089300BCDAD265BCA115DDBBC2FC92BAA312942B
:1008A3003C2A1ACC3CBAB9CA3D0BC4793D4DC34965
:1008B3003D7237D83D8EBC0D3DACA6AC3DD1AC9E50
:1008C300BD3C51B9BD2B89C5BD16253DBCA1028ECA
:1008D300BC80B86EBC28B8D4BABC8E553C29095824
:1008E3003C5319B33CAA34B83D01DB8C3D06683652
:1008F3003CB801243D1B9AC13D4110E03D3348CC37
:100903003D224AF63D6640B93D78D4B63D4915309F
:100913003D4A35133D6A09BC3D2F65BD3D31A207F4
:100923003D3796E33D0784A83CDBE0173D1710B83D
:100933003D02322B3D0CD69B3C02688C3C62A4C129
:10094300BB394618BC1EFF70BB9B80B4BC2AC7F4DE
:10095300BCE9F96ABD1AF343BCFA16D2BD43C064BD
:10096300BB8BFCE1BBBE1A13BBCC4DD9BBEDEF5423
:10097300BBFE600FBC035A38BC089649BC09D94F6B
:10098300BC0BC512BC0D3C5EBC07F4B5BC00A5A3F3
:10099300BBFB59C4BBEDF9D2BBE53E42BBD659BE46
:1009A300BBB8AB92BB9E0D06BB8F2677BB6AA7D0A5
:1009B300BB51CCBCBB125FD0BAB8C0AFBA20161CB7
:1009C300B334637D3900BC173A5FD19D3AC353C139
:1009D3003B1B400D3B4ACF0F3B6D9D9F3B84F93D35
:1009E3003BA62E863BA6993E3BB6EDB03BCCD5C984
:1009F3003BE1382B3BE61D453C01077B3C01602C6A
:100A0300BC3CD979BC341529BC275141BC1B7DA4FE
:100A1300BC10DE94BC0455C2BBF09500BBD267DDAD
:100A2300BBBA0A6EBB9BFB5EBB7E9087BB4326C2F1
:100A3300BB0643C5BAA46072B9B508D83A131A798C
:100A43003AAF7CFD3B03C48E3B3707C73B53E9BB3F
:100A53003B8141A53B8CB0DC3B917B663B9F6215A0
:100A63003B9E69CB3B9F01D03B9BBA9C3B92DA6197
:100A73003B76FB123B50BE403B1F14D03AB7027A81
:100A830038881AECBAAABCE9BB38F0A2BB95FF4A76
:100A9300BBD9C67DBC103ABABC37DA8EBC5F6AD705
:100AA300BC8E7C95BCA546ECBCBB5959BCD07B27FE
:100AB300BCE4BE81BCF8203ABD052910BD0DAD7361
:100AC300BD157E5FBD1CC5E0BD234AC3BD28E677C7
:100AD300BD2DE180BD31FDBFBD3522BABD37792CB7
:100AE300BD38B7F7BD38FEF4BD383B37BD365BB50F
:100AF300BD338795BD2F7BA2BD2A4F73BD24100D37
:100B0300BD1C984FBD13F34ABD0A18E8BCFE398FCC
:100B1300BCE5EC2CBCCB1FB8BCADF6B1BC8ECE9BF8
:100B2300BC5A3F1DBC12ED79BB8DF8AB3A0A65CABE
:100B33003BBA40CC3C34F4073C882F323CB7CFD689
:100B4300BD5D890FBD68D742BD738B54BD7D899D43
:100B5300BD837666BD87C66ABD8BB6D7BD8F473961
:100B6300BD926E1FBD95367FBD979E3BBD999F88F5
:100B7300BD9B2C38BD9C74FFBD9D4A1BBD9DC663A8
:100B8300BD9DE68FBD9DAFCDBD9D241ABD9C441375
:100B9300BD9B226ABD99AF45BD980A75BD962418C1
:100BA300BD940826BD91B8BDBD8F498BBD8CAB8567
:100BB300BD89FED2BD87332DBD845809BD8169F43B
:100BC300BD7D0670BD772A60BD715587BD6B9445A9
:100BD300BD65EBC9BD60654BBD5AF6E8BD55C8227E
:100BE3003D0834633D173DC23D25967F3D32ABC979
:100BF3003D3EADF03D496A563D53C0D23D5CC0E930
:100C03003D64E4AA3D6BD8B03D722C523D7791DA36
:100C13003D7C2B5C3D7FD5BB3D81344A3D824B13EC
:100C23003D8323353D83741E3D8367903D8314CFFD
:100C33003D8283943D818C0A3D80686D3D7DBEADD0
:100C43003D7A06063D765EDD3D71782E3D6CD449D6
:100C53003D676C803D610A623D5B0A913D53C7F578
:100C63003D4CD4C13D45083C3D3CB8613D3379CD55
:100C73003D2AAE0C3D2066AE3D1673273D0BB49165
:100C8300BD1B49ADBD126902BD095BABBD00FB3E97
:100C9300BCF16F23BCE15B49BCD0FAFCBCC34EB7CB
:100CA300BCB51DA3BCA7D2EEBC9CD9A1BC918EB987
:100CB300BC888EACBC7D2582BC6EDBE7BC6178FD55
:100CC300BC572455BC4FEBCABC49B003BC47F42600
:100CD300BC452C80BC488AC2BC50C77ABC5877D567
:100CE300BC65C084BC732CFCBC82D8EFBC8C248054
:100CF300BC98273FBCA67BB4BCB52920BCC3DC6031
:100D0300BCD60576BCE773C1BCFA750ABD07FB2ADE
:100D1300BD1252F3BD1D9244BD2910F0BD3565626D
:100D23003D7CF0663D809D7F3D70D9473D69FDE088
:100D33003D6A3C953D65375C3D67E0863D60E37009
:100D43003D53AAB33D562F433D53D08C3D416C5D7B
:100D53003D34229C3D38965D3D359B243D2CB09619
:100D63003D2586C13D1F2EE73D1D98593D2078A5A1
:100D73003D17C0033D16B2EE3D1076FC3D0CB40C9E
:100D83003D150CA43D0450F33D0F87953D06209976
:100D93003D0A22033D0C588E3D0DCDA33D0F9370AC
:100DA3003D2409FF3D2C66D53D3FC20E3D395B47CF
:100DB3003D4CA1CA3D63508B3D5EBA793D830EB273
:100DC300BD4823D0BD3AD42DBD379363BD37CAEE9A
:100DD300BD36E872BD37D5C7BD39F3E1BD33353113
:100DE300BD38FB53BD3319E6BD38174ABD399F7E65
:100DF300BD3CB43EBD41B096BD3E00B8BD4BA12144
:100E0300BD4A8BEBBD538EECBD5F48F9BD5E5DCF34
:100E1300BD6DE0A4BD701C1CBD816CA1BD87A7582E
:100E2300BD8B2712BD91A7ACBD98A4D6BDA3B018A6
:100E3300BDABF133BDB5D54EBDBF1CE4BDCC145B1A
:100E4300BDD46430BDE084A0BDEFA94BBDFEC4A6F4
:100E5300BE058212BE0DCA11BE17530BBE204D072D
:100E6300BDC199D7BDC16FDFBDB1FF52BDAB9DC839
:100E7300BDAB527CBDA0D453BDA04F36BD966CAF65
:100E8300BD96224FBD922144BD87C03ABD8AE485F9
:100E9300BD81B23ABD7BFF7ABD827EEBBD742A6E03
:100EA300BD7D351BBD7FE484BD76E7F4BD8082F054
:100EB300BD7981F8BD788B18BD824AFFBD875B760B
:100EC300BD8916E0BD86658FBD91F101BD94EE77B6
:100ED300BD98E198BDA0FB78BDA320A4BDA4DD1FF0
:100EE300BDABEFEBBDB659F1BDBFBAF8BDC60694B5
:100EF300BDC718EDBDD04071BDDC4F74BDE447E5FF
:100F0300BE065E1ABE065F75BE062A33BE05A36E15
:100F1300BE04D944BE03C8A0BE026E14BE00DD1ECB
:100F2300BDFDDD1ABDF98BFBBDF4C657BDEF92477E
:100F3300BDE9EF4ABDE3AC08BDDD1A05BDD5E42824
:100F4300BDCEB921BDC6EC6BBDBEE99ABDB6911B42
:100F5300BDADC60CBDA5241EBD9BF082BD9301A5EE
:100F6300BD893863BD807D4EBD6EEFD6BD5AB28458
:100F7300BD489DF1BD389B26BD270678BD145B583F
:100F8300BD01F102BCE88040BCC580CCBCAAF6D34D
:100F9300BC8A7BEFBC6868B4BC2AE37DBC10847F49
:100FA3003D0CBB193CE95FB83CB0548C3C7FAD2B86
:100FB3003C2975823BA20898BAAFC21CBBA7849494
:100FC300BC1EF53CBC6B8AABBC973A69BCB5944874
:100FD300BCCCD029BCE8D368BCFBAA78BD05311BC7
:100FE300BD0BA7A5BD0E4A5DBD118CBFBD1310E996
:100FF300BD0EAF07BD0F5290BD08564ABD015CDA66
:10100300BCF10B14BCE1943ABCC1A62FBCA8A8D078
:10101300BC8713E9BC4D86D0BBFF6820BB8C67A699
:101023003AAE0B2F3C0A31953C4EEAAB3CA97652C3
:101033003CE11ABE3D0E87653D2948733D48754D19
:10104300BD1B3326BD1B518BBD1B5931BD1B29361F
:10105300BD1F14A4BD21C63DBD21894BBD1E327FDA
:10106300BD204D8FBD244BB1BD20A7DFBD260C6233
:10107300BD20198CBD1D4E04BD1E3682BD1BECE880
:10108300BD1C0E64BD1DE61ABD1C60E3BD1A03C979
:10109300BD177F4EBD14904EBD11AE22BD0B6D42E8
:1010A300BD087478BCFFA6A9BD01518DBCFBDB1044
:1010B300BCE9CEC0BCD8BC5BBCD01232BCC60A45AE
:1010C300BCB76480BCB007C2BCA07691BC929C75CF
:1010D300BC83BE88BC713055BC5D8087BC32C360A5
:1010E300BCC58818BCCB8782BCD187F6BCD7C8B136
:1010F300BCDDBB1BBCE43C30BCE664B7BCEC81A7E5
:10110300BCEE97E4BCF32176BCF3E067BCF406B015
:10111300BCF6519FBCF768B0BCF5E76EBCF4859391
:10112300BCF134B6BCECB342BCE9E864BCE44D8B1F
:10113300BCE12AC6BCDB7557BCD7915DBCCFE59239
:10114300BCC89E13BCC47CEFBCBCE935BCB72377D9
:10115300BCB1A3FEBCACA789BCA5A277BC9EE1230E
:10116300BC9ABC24BC9A0976BC93D7E2BC93D1BB8E
:10117300BC912632BC94A094BC93A465BC967253D4
:101183003D5861E63D43C92D3D32E9473D23037593
:101193003D115BE53D0339873CE8F9D03CCF55AFC2
:1011A3003CB4559A3C9B13CA3C85E9713C64286F57
:1011B3003C3F6E553C18853D3BF42BE43BBFE1D8E7
:1011C3003BA5112B3B6EA2823B4BC7C33B1A980F27
:1011D3003AE94C793AB261F03AE4966D3B0F062551
:1011E3003B2AA71E3B5516253B8A0AF53BC6251B02
:1011F3003BFA992A3C1C3DA33C3CCA3F3C6A89E22A
:101203003C87BF063CA4830C3CBAC51C3CD7FDCD30
:101213003CFBC8D33D0D26D23D1F22713D338D2AA1
:10122300BD3264F4BD25DD3EBD19CC4ABD0DE5A735
:10123300BD02AD86BCEFC968BCDB5BC7BCC813D9B4
:10124300BCB6B761BCA6D1B7BC980AADBC8BB29C87
:10125300BC80E1F0BC700D07BC62A2D8BC58440747
:10126300BC535757BC52ECF5BC565BB2BC5F7A66B5
:10127300BC6C6367BC7E84A2BC89E8BBBC97A41A20
:10128300BCA76025BCB9A5DDBCCDF09DBCE478B896
:10129300BCFD03A3BD0BE485BD1A6332BD298C4D90
:1012A300BD39E61DBD4AFA76BD5CFCC5BD6F978AA4
:1012B300BD816FFDBD8B7F46BD95E02BBDA06F3813
:1012C300BCA2C3D8BCB8B13FBC4E2596BC81DF815C
:1012D300BC4B73E9BC1505C4BB0DA2B8BAEE159D92
:1012E3003BF635AF3C09F11D3C3623463C9676F57B
:1012F3003CB6A8EE3CA8F31F3CE6CC563D01BD220C
:101303003CE65FC83D0CC3E13D1121453D18938880
:101313003D3924313D39ECF43D21BAA63D2A22C999
:101323003D38F84F3D38F4BD3D357B1C3D286F6299
:101333003D47FFFD3D3009CE3D3164283D1CB54896
:101343003D148C223D078A283CFD2B8F3CE41C482E
:101353003CB83B443CBD93DB3CA9DC3F3C32156BC2
:10136300BDB9906CBDA70F0DBD959417BD8319A48E
:10137300BD60F1AFBD3C8BDBBD1735DEBCE39A83AB
:10138300BC985B47BC1971B8B87634A53C1765B5F2
:101393003C97EEB33CE4BC473D18BD743D3F25612B
:1013A3003D64FB213D85655D3D98220E3DAA8C6120
:1013B3003DBCA8FC3DCE57BC3DDF91553DF00A1521
:1013C3003E000CA43E07A6A73E0EDF433E158559FB
:1013D3003E1BCF1B3E2175F83E26833D3E2ABFE6CA
:1013E3003E2E8C143E3151303E33B8073E3548FA19
:1013F3003E35DEA33E35DB0D3E34D09A3E32CFC0C0
:10140300BCC50AB7BCE0CBBBBCBDAD57BCC9845897
:10141300BCD1B09BBCB42C33BCBD302FBCBD55DD9F
:10142300BCA4107FBCAFF050BC75FD29BC98F4E898
:10143300BC8C023CBC6D5D0BBC06EDEABBDEC91B7C
:10144300BB12E9EC3A3A2C723B717FF13BD031A9E4
:101453003BB647C13C3C3B143C7434D03C60F8B6CB
:101463003CA7FE993CAD30D13CE545603CF6827922
:101473003D0379733D0E036A3D1C95B83D294E5BD0
:101483003D37C9CF3D4870383D48A4913D61AE38E2
:101493003D6D03853D74532F3D81423A3D8045DECA
:1014A300BCC04DE8BCADEF57BC9F851BBC9105305C
:1014B300BC8573ECBC799DAFBC5FC029BC51CDC466
:1014C300BC40DB3CBC2ED0CFBC22DF0DBC1598D179
:1014D300BC0E4BD2BC041410BC006317BBFBFF3B18
:1014E300BBF1FE59BBE02998BBE2973CBBE7FB5637
:1014F300BBE5E72CBBE95338BBEC4AD7BBEF690626
:10150300BBFD53DCBC04C257BC066C19BC0F480AB4
:10151300BC1568AABC1D0FCEBC2D1814BC3AD2BE94
:10152300BC43B1F4BC568B38BC676A3FBC772E9181
:10153300BC85EED4BC8D4AA4BC961A63BCA59CB9E9
:101543003CC61C803CAABEEE3C90CA293C70CEF936
:101553003C4041D73C13CCE13BD1A2CD3B7E37B6D7
:101563003AD8FB7CBA3172CCBB2CB863BB8E9F627A
:10157300BBC3F226BBF44BAABC0F5FF8BC2246ECFC
:10158300BC302FB8BC3A053CBC419DC4BC46040EDC
:10159300BC43F04BBC3E9A03BC3670AABC279F17D2
:1015A300BC1330AFBBF4E907BBBC973CBB741EE56F
:1015B300BAB1A3153AB999253B9544623C02CD3B98
:1015C3003C3F8D653C81CAF73CA6EBA53CCF35413A
:1015D3003CF8E40C3D13E8893D2C4D893D45FE6400
:1015E300BCA51B33BC813364BC3B4F44BBF0858437
:1015F300BB5FCD6339EBC7FE3B8C1A553BF27E0CC8
:101603003C2CD27B3C62F4043C86AEA03C9A3D1455
:101613003CB0DBA33CBF35EC3CCD315C3CD9873CD3
:101623003CE253333CEC7C533CF02E753CF28D078B
:101633003CEC20DB3CEB50B93CE375953CD5985C26
:101643003CCDEF0F3CBCEF963CAE38583C94642243
:101653003C821A0E3C50A2B53C0CEB6A3B9E242DF7
:101663003A770086BB66D97EBC050D50BC4A8E9C7A
:10167300BC925636BCBDAA79BCEAE3C5BD0DDC11EC
:101683003DED6F743DE7C2B63DDE5FC53DD7C6B1E4
:101693003DCF46203DC5CA9D3DBC290C3DB41FC16D
:1016A3003DAB0BCC3DA3907A3D9A29CF3D91842944
:1016B3003D88A0BD3D803F853D6EFB1C3D5EB78CE4
:1016C3003D4B29603D3D99BC3D29A6783D1CD099F1
:1016D3003D0D2D633CF46EE63CD708F33CC11ED2AE
:1016E3003C9E395C3C87EB353C5737DF3C28DECBEF
:1016F3003BED0B7E3B8873593ADAC591B9EEC7B817
:10170300BB2FAE21BBBCB887BBF6210ABC26F6D3E0
:10171300BC33C535BC58ADD3BC775D7CBC83F31AF1
:10172300BD06AB3DBD14D078BD1EBB9ABD1C403970
:10173300BD3E0157BD48FAB8BD53A49BBD5A2B4BC0
:10174300BD46CFCEBD4EA37FBD7056B4BD71C21C86
:10175300BD5FD893BD630333BD69CF0BBD6175A86E
:10176300BD703046BD671C8CBD56713CBD4F7F407C
:10177300BD4540D4BD301E86BD2D31BFBD130DD830
:10178300BD056CF1BD06D81BBD053524BCB35EA8F1
:10179300BCA7840BBC825A9DBBD9358ABBB60B82CE
:1017A300BABA75DD3C0934593C836F433C9B96556B
:1017B3003D09CF873D1175253D2CFC013D536164E7
:1017C300BC81B77FBCA2B992BCA92A33BCA1B144E6
:1017D300BCBC3761BCBB0EB8BCBD1273BCCEAA5037
:1017E300BCC00CFEBCAD3E18BCA36130BCAE8A339A
:1017F300BCB42F5FBCAF215FBCA0DD65BCB34F346D
:10180300BC7E51DDBC952B59BC845E8DBC71BC1A6A
:10181300BC69A7C5BC449EDDBC167B5CBC05FD9EB4
:10182300BBAB8572BB744C5C3B1048553B7F5F6D13
:101833003BA657E53BA775AA3C1849DA3C4513DAA2
:101843003C2C35B93C3ADCBF3C87C5E43C91088F5E
:101853003CAACB1F3CBCC1463CE648BA3CEC360232
:10186300BDD31DAFBDAF0C90BD4524BABDB9E717BD
:10187300BD8B4676BD767164BD6BF0B1BD0FD5F0FF
:10188300BD45E0EABD8516AFBD0C63DCBD7DAF741D
:10189300BD3CC2F5BD83399EBD62FB92BD0E308D4A
:1018A300BD8258FBBD706D54BC6A998ABD2F5BA382
:1018B300BD028F72BD78BA77BD447E15BD52F27BEF
:1018C300BC4A70F8BD615117BD4D3BE2BD3CA26FF0
:1018D300BCB4AC42BD66DEC9BD1C01DABD7B885E0B
:1018E300BCA14C6ABCD86551BD68C567BD2472FCF8
:1018F300BD779FA5BD023FA6BD6FE77ABD40194BDB
:10190300BC90BB3BBC605A1DBC3EC47ABD660CC7D1
:10191300BD519871BCE76E5BBD32589DBD041E146A
:10192300BD06708FBB276AACBCA1047B3B8B3327FE
:10193300BC6F611D3AE84C38BD230C6BBC83685502
:10194300BD3353DFBD326DA3BD2DABD3BD5D6E1370
:10195300BD0CB129BCC971A5BD6C6992BD881A3C87
:10196300BD82FBA0BD9A14B4BD816C6ABD544B2BE0
:10197300BD6C68B8BD931AB9BD8CF35ABD99C42C1C
:10198300BDE302A4BDC570AFBDEBDD6CBE0F8563C7
:10199300BE209097BE2B6BFABE1040EBBE4003D027
:1019A300BD6E42E3BD645D95BD62A759BD542B4630
:1019B300BD49A924BD443B22BD3680D8BD2DC34DAE
:1019C300BD2FC33EBD284853BD1AF1E3BD0E0AB077
:1019D300BD04FC1ABCFA167DBCFD00F0BCEC30194A
:1019E300BCD986ACBCC9F2EEBCBB2AD6BCB12B7C3D
:1019F300BCA2FC94BC94A54DBC7E963BBC709ED00F
:101A0300BC5969B0BC541570BC65DFE2BC3BEF3E0A
:101A1300BC321E48BC4DAD9CBC3A1C01BC1C7C12A4
:101A2300BC3DD2C9BC4BE55ABC440D99BC4B2EB846
:101A3300BC4D5480BC51AC9ABC79F4DFBC67A7BEE3
:101A43003CEFCC8B3CCE3BE43D00C4823CCD732ABF
:101A53003CF92A473CE025873CF0C7E13CAC887B56
:101A63003CB063633CA40E873CD5A6063CD68C43AE
:101A73003CA2C5263CC4E98D3CA5DE983C9DD2E43E
:101A83003C8819313C9676933C2F045C3C56A0D796
:101A93003C8D71143C566CBC3C0A60753BE974F593
:101AA3003BAE91023C391A1C3C55A3C13C47147808
:101AB3003BA4E5653BBFBC3D3B340C373B23191BC3
:101AC3003BD8C2A03B1495233AA33A603BA683516B
:101AD300BBE50F6F3B53D550BB8FCB19BBC0040085
:101AE300BC4DA760BC851669BCC291E9BCB886E24F
:101AF300BCC86AACBC9A7EFCBCC88734BCBFA8DB3C
:101B0300BCBEBF12BCAAE2F3BCA6FA5CBC9F28C74A
:101B1300BCDE5245BC8965CBBC7DA705BC90242B9C
:101B2300BC4A08A4BC6A838FBC91D4E0BC6112CECA
:101B3300BC07894ABC22FEB7BBCF2C343A8A3A92FF
:101B43003AEE17173BADAD553BD2A7753C6DDEDCC6
:101B53003CC01F0B3CA8E6F23CBFFE913D14541F52
:101B63003D094FCC3D2EC9A53D3C89EE3D58E18151
:101B73003D7ABBE53D7CBB6B3D8932843D9CA5DC56
:101B8300BD143E20BD19522ABD1E2A06BD1D1B5978
:101B9300BD25EF0FBD23D9F4BD270F7ABD2B44C359
:101BA300BD28BB25BD287A04BD290735BD2A0233CC
:101BB300BD261F24BD239A7CBD1FC7CFBD1A6A292A
:101BC300BD122B49BD0D30A3BD0270D1BCF35460CF
:101BD300BCE5AA59BCCAE31DBCB67827BC9C2861E6
:101BE300BC892638BC48A917BC219275BBCAC1DD84
:101BF300BA954CD93B22F8793BC83AE83C325AB300
:101C03003C752BE13CA074903CCFAEAC3CF6BF914D
:101C13003D0E091F3D25413F3D3734843D4DAC7E8C
:101C23003C266B613C8CF7053C7985063C5E29DAE2
:101C33003CAF4593BAA660FD3BC539EA3B2BF05652
:101C4300BBA9C8B7BB6DFF953B0DE1BC3C942DD43C
:101C53003C00890D3CBE58943BCCCFC33BD3CFA7AC
:101C63003C0982293CACFA6E3BBC59CB3A2A1B1384
:101C73003CA8996F3C8420C83D03A0F23C0C6B9AAE
:101C83003C65747A3D06E7CF3D0C50EF3CD8269E69
:101C93003CE2A6FB3D6FE5383D80410E3D87771959
:101CA3003D48C4023D6864EA3D8B45143D9FDB71AA
:101CB3003D6D6D033D91AF683DB666EB3DB6E50303
:101CC3003D9C992B3D8A25523D7C8DE53D7899E7D6
:101CD3003D6984603D6798BB3D4603493D31A0564D
:101CE3003D31B3ED3D028C8A3D037C773CDB4A6892
:101CF3003CD629073CB680B23CD727813CD226A4E8
:101D03003CBC3BE83C5DE06E3CA26D7E3C9F2D7B82
:101D13003C8997CA3C5C31523CBC89653C81EBE50C
:101D23003CDCF7563CDD15FA3CB0B88A3D19998482
:101D33003D2327C73D2F0E843D471A0B3D5E90B5CB
:101D43003D7699AA3D8689963D8082B23D9754B9E6
:101D53003DA9D9523DAB47643DC872D63DC8FA95FB
:101D6300BD58F0CBBD482C92BD3A4AA7BD34D137FC
:101D7300BD2833B4BD1A8A4EBD1384DDBD052DCFF6
:101D8300BCF81612BCE3A8E9BCDCE572BCCA104877
:101D9300BCBE9DF5BCA90205BC9D9CCEBC8EF6665F
:101DA300BC93E389BC87951FBC83BC5EBC827E0069
:101DB300BC8DFF7EBC8334F2BC98DFC5BC935888CE
:101DC300BCA5272BBCAEDB2DBCB0E8A3BCC9F34537
:101DD300BCD2F668BCEDFB05BCF628EBBD0A53A3E9
:101DE300BD16A7BABD2019C1BD2FDBE6BD35742DC5
:101DF300BD4AC746BD519A8DBD646182BD6C312811
:101E0300BC8DE298BC93305CBC6EF471BC7EAE9D1D
:101E1300BC59619ABC64153DBC5F3E41BC992E3CE4
:101E2300BC954FD4BCA50FDBBC6174BEBC9FEBA2B9
:101E3300BCA1203ABC823FFFBC8BD9A9BCA28520A0
:101E4300BCAE17AEBC9DA7D8BCB65BACBCB7F3D4D5
:101E5300BCAF6465BCFEB497BCF9A8EBBCF3E22449
:101E6300BD0989C3BCF56D1BBD09F45ABD08F71D37
:101E7300BD23F9F4BD1D2589BD2C549FBD3A87238D
:101E8300BD213D95BD23DD00BD3DF24BBD453BDC92
:101E9300BD543486BD609AC4BD43098DBD5F95753D
:101EA300BDAC669DBDA0A96ABD96933EBD88BD41EC
:101EB300BD70A699BD645CE5BD5F8CCDBD4CA4EC43
:101EC300BD326B38BD25FB5EBD18C4B3BD142AB645
:101ED300BCF65709BCFCCFBCBCEEE4BBBCDA7F2C20
:101EE300BCB3FDB6BCCB1171BCD01F72BCC776C0EE
:101EF300BC97FDE9BCC1F4AEBCBB2DBDBCDD95FFF9
:101F0300BCCFAF42BCEBB327BCE29D34BD133B9EB9
:101F1300BD1FCD95BD1FE959BD30A395BD4B174CD2
:101F2300BD567BD0BD75AD7DBD6F0BEBBD8A951ADC
:101F3300BD906D95BD9FC312BDAB8CE2BDBCBF2DE3
:101F43003DD1CA833DC564143DB3065F3DACB0EEDD
:101F53003D9E0A283D9886ED3D8573413D7B974420
:101F63003D62C4623D4E260B3D4A564C3D3910CA74
:101F73003D28AD413D1E41C63D1D24973D12D9B2BA
:101F83003D18AD953D1B43F43D126CDA3D1C09C66B
:101F93003D1AD8D13D15F5DE3D2B79443D37EC583C
:101FA3003D47D36B3D52D06D3D5F80BB3D7190CAC1
:101FB3003D84B62C3D91FB773DA00BDE3DA7D17C44
:101FC3003DBE45AE3DC4B2D53DD9B54A3DEE2C9A92
:101FD3003DFD56CF3E0799BA3E0EB7C43E17B85BD8
:101FE3003D23C6F43D21EF213CED7AB53CD7B73410
:101FF3003CD3A73D3C82A1C73CB34A353C2A98F564
:102003003C2DB6A43C41FC1C3AAE35DEBB30F08E11
:102013003B90DD6ABC013B1F39882FFFBBE9B4ABA2
:102023003AAA3A84BC0A32F3BBF8FCCEBC17897CCB
:10203300BBA4D442BBDFA2FE3A226EEFBAD574F83A
:10204300BBD3184DBB100302BB5169AEB950CB23B0
:102053003BD5AF813C3B0A503C6A34C23B6BCEF567
:102063003C2DB3403C7423B83C8A5CDB3C8A88D269
:102073003CB12B443CED9DF53D3269633D1E2A98EE
:10208300BD6F3DC5BD6F76BCBD55232CBD392BC07F
:10209300BD1B60C7BCF845D4BCF3C5A2BCA668DFB2
:1020A300BC331CFBBC08CD39BAF97987BB330F3677
:1020B300BBD4930C3C0159E73B63547D3B106FFF4A
:1020C3003C0228ED3C50CDE83B2DEF043C57B1BE1C
:1020D3003C02EEB23C1466363C1F57E83BAA29F398
:1020E300BA7C6D573B767CBDBA3352B1BC3184BBED
:1020F300BC2E1303BC36441BBCA6A78CBCA757EC51
:10210300BCD15254BD15EB4ABD02308FBD3786D5C5
:10211300BD32A68DBD68AA09BD7BF437BD875A239E
:102123003CBC666F3CBBA77A3C9CE3483CAA6C93DF
:102133003C7F48543C9E70A13C8A81AA3C7E029B12
:102143003C651BA33C40EEAB3C562EF93C35A8192D
:102153003C57FB643C0AD9AE3C5A68DD3C054C7CD9
:102163003C4616343BE9A6FA3C3C76313C4BD4273B
:102173003C4D026C3C311D7D3C1F4F433C4989D88B
:102183003C2F2B883C32E5D13C6892453C507097FC
:102193003C893AEA3C7425253C5DA5DA3C7EF6D2BF
:1021A3003C6EB87B3C8E4C493C99C7983CAF03A925
:1021B3003CBFCF223CB59ED73CD16C9C3CBAE79147
:1021C30038C5F89D3A2AE8D53A03BEE7BA42A34296
:1021D300BB027D51BAAFEBD2BB2BA039BB154681F5
:1021E300BB31FC0DBB5DC8DABBAEA230BB7D26D8CC
:1021F300BB801F1FBB9E3B0BBBCFD721BB9BF16992
:10220300BB949B69BB9CE015BB902E6EBB9741169C
:10221300BADCF234BA1D71733A9C609E3B63E6AB41
:102223003B0BB7663B65C31B3BC09A313BF2FE7069
:102233003C308FF13C615A3C3C9352243CA92456D8
:102243003CBF5E103CC7CCF33CD2D8F93CEDA20AAC
:102253003D0C26EF3D1D91793D1E504E3D27F39BCE
:102263003DCE34DC3DC9E43C3DC5B2153DC22F9F94
:102273003DBE6F1B3DBAA3AB3DB7671B3DB4318277
:102283003DB15DBC3DAE75223DAC37673DA9EAB4B7
:102293003DA815B43DA654B63DA5098A3DA3E382E6
:1022A3003DA35BB63DA2B8353DA2FAB63DA30DCD25
:1022B3003DA409FE3DA50D443DA684B23DA87C374F
:1022C3003DAB13043DADCEC93DB0FD163DB5016434
:1022D3003DB8F43F3DBDB33C3DC2DEC83DC84DBD36
:1022E3003DCE1A883DD4C4553DDBD7BF3DE3254DD4
:1022F3003DEAE91B3DF3201C3DFBDBBB3E0262379D
:10230300BDA0CA55BD995BFCBD92BF06BD8BFF0A3C
:10231300BD8582A2BD7E8D43BD72B018BD67C6F276
:10232300BD5DE833BD542F19BD4B9C35BD4456A448
:10233300BD3D4C2BBD381DDCBD33A351BD2FF599DD
:10234300BD2D5840BD2BDA28BD2BD39CBD2C11C20B
:10235300BD2E4508BD313186BD357C94BD3A5177DC
:10236300BD4087DBBD477B5EBD4F97EFBD5877AF61
:10237300BD628663BD6CAA3BBD787AD8BD827413F7
:10238300BD88D407BD8FC0DABD96E59ABD9E587F40
:10239300BDA60640BDADDFEABDB611A9BDBE395E1F
:1023A3003A2B8BC6BB7A083CBC7659D1BC666A878C
:1023B300BC6E76A3BBBF0267BC77C8FFBC07010135
:1023C300BC56B731BBD8EB67BB4C0D4ABBB7C92969
:1023D300BC03BC31BC4E82DEBC9DC195BCAED47C7B
:1023E300BC0CF1A2BC1FC17BBC1E97B8BC8882B3D6
:1023F300BC9AE948BC8F72A7BCB10905BCF9EDAD25
:10240300BD09C598BCE4940FBD0283B7BD3210303B
:10241300BD1404A1BD3F64FEBD6157BCBD7A669483
:10242300BD449BEABD85F836BD8A1C64BD940B325E
:10243300BD9846B3BD7D781EBDA4247ABD994C706A
:10244300BDAB5349BD9D6308BD91EC25BD81E099AA
:10245300BD677459BD5C16A1BD3C09BDBD39257668
:10246300BD1D259DBD0AF386BCFA00D2BCE203B6AE
:10247300BCCFB8A8BCAA78E5BC8F1DAFBC7E58639F
:10248300BC5C27BDBC4BF307BC4AC388BC6ED6D12A
:10249300BC5B7726BC896704BC9C0C85BC8CE3427F
:1024A300BCB7F004BCD51190BCF98352BD1007240E
:1024B300BD21E727BD30F5B6BD4A8565BD616EDD3B
:1024C300BD84FA10BD8A219CBDA332DEBDB044F0A9
:1024D300BDBF3CBABDDB891DBDE8DD91BDFD2787CE
:1024E3003D84D81A3D6FFE0E3D55116F3D4D664933
:1024F3003D340E883D1DE7683D0CFC653D061FF627
:102503003CDB35CB3CCE91E63C9BC6D03C8A0814E1
:102513003C8040D03C682BF63C6F47153C41EF783C
:102523003C3EF1E63C2607E83C2E78A53C321C5C99
:102533003C7285F53C6F82863C96C1A63CA52D0571
:102543003CBA840E3CC840D53CFA8A473D0A4576DE
:102553003D1FE0003D3421E83D49902C3D5A11D008
:102563003D76ABC73D86C8163D93A4533DA1B9D56F
:102573003DB22CDC3DBE5DA13DCC9C7A3DDF3EA748
:102583003D3118723D309DAC3D3033F33D2F6D111D
:102593003D2E88D83D2D5BFF3D2C20AB3D2ACA1B29
:1025A3003D2909B23D2753453D2562F73D23624C42
:1025B3003D20E5323D1E94AD3D1BB9303D1911F66A
:1025C3003D15E7953D12E5AA3D0F98363D0C064AA9
:1025D3003D08602A3D0498CA3D003E763CF882C01F
:1025E3003CEFA6873CE716A33CDD650A3CD428A54F
:1025F3003CC9D6ED3CC039483CB54CF43CAAE02B71
:102603003C9F73873C94E4193C89D37E3C7C3B1EFE
:102613003C64B08D3C4CE1393C34639B3C1C604BC7
:10262300BC09CCFBBC3C1795BC6CD8B9BC89BB5767
:10263300BC9D2710BCAEA7A3BCBF96D9BCD0F5A444
:10264300BCDECB51BCE82F0EBCF1BBADBCFBB42A46
:10265300BD02C3D7BD04B43BBD0579BFBD07AE7E84
:10266300BD050BB0BD057967BD040362BD0107035A
:10267300BCFCFBE2BCF51348BCEA6BAFBCDF8E08C5
:10268300BCD04685BCBF0A26BCB29EC0BCA0C35CFE
:10269300BC89F301BC72F0DABC45C2F2BC0E2A6CF1
:1026A300BBBD718EBB19EB0939BD9F773B7D57C904
:1026B3003C057DD63C39CE923C7D06E73CA05A01D1
:1026C300BC60DFB4BC5D4B85BC584D35BC542ADBC4
:1026D300BC4F0191BC499E5BBC437511BC3CE232CB
:1026E300BC360673BC2E4936BC26EBEBBC1C15A6C8
:1026F300BC14B4CDBC0AFECFBBFFDEC8BBE9F49D5E
:10270300BBD42D02BBBF640ABBA4380ABB8E765D63
:10271300BB62A22EBB327605BAECF5C0BA7A13FAC5
:10272300B75F23113A7F62203AFA07653B3F32A82D
:102733003B77C7F43BA01ACE3BBDE9A53BDE814DF9
:102743003C006CE73C11A9C23C21F8363C33626F74
:102753003C4394973C52BE083C6214213C7167E0B1
:102763003DF31DF63DD52E043DBA93613DDCF27970
:102773003DC86D593DB9214D3DA779793D9A535CCB
:102783003D90C2773D7E46CE3D602AE13D3E6911D4
:102793003D16735F3D674D593D38713C3D08038BD2
:1027A3003D3AFCC43D113F993D0F55523C8E2037B5
:1027B3003D173B823C5CA4E73C64F8623CAAA6B2AA
:1027C3003CC99C3B3CF8EC073CAFAE1F3C8295C137
:1027D3003C1F8A523C85125F3C81E2443CBC911F02
:1027E3003CF663203D28EB443CE391F13CA951C402
:1027F3003D3569BB3CBD3A153D3D91EB3D19874CD9
:10280300BD1D1037BD1D42C8BCE95068BD24D95455
:10281300BD127C21BCF94238BC6DD79CBCDB8FAAAE
:10282300BCF73630BC82048FBCC893AABC48DC0E0C
:10283300BC68C211BB95E7C239DEC630BC3BF9CFD9
:102843003C962CC73C87920C389A24033CF856914B
:102853003C8BBBA73D1606733CC5D6393D25B9BE97
:102863003D0FC8D73D4375B13D438C0A3D72FF26EA
:102873003D969E4B3D91A7303D74E2633DB24125A9
:102883003D9D6D1A3DA3F31D3DCB0C653DCB747689
:102893003DC9B6293DAE62253DDC83D13DBFB5368A
:1028A3003D3483553D4182C03D3430C43D317D913B
:1028B3003D1F9CF13D2491133D1C05D83D107D2CFB
:1028C3003D1D63E63D1A31ED3D190BE63D021FB494
:1028D3003D02AF033CF588173CF2B6793D0141D583
:1028E3003D12A1DA3CF7255E3D0338283D03153040
:1028F3003D0AD0443D1FEB743D14C8203D1AD3C09C
:102903003D305E933D280FA63D2AAFFA3D47166C36
:102913003D4205423D591A673D649EBF3D75CA1944
:102923003D7EF2713D82D4733D9812D33D94F135CF
:102933003DA1EFE43DA470CD3DBB1B5E3DB97C29B9
:10294300BC80886EBC5998CBBBC21D8FBC7EDC5546
:10295300BC60A3F2BC861828BB4A378FBC84754D74
:10296300BB9E3F97BBB7CEA3BB71F844BC57957FC3
:10297300B95636F3BBE7FB4BBBDBC196BBBD6982E4
:10298300BBA2F853BB0C57C53BB04965BB8C7D3A22
:10299300BB6E81E53992E2B53C399B143B1B15D2E2
:1029A3003C4A72FD3C79A8F93B8D87D93C8CC643E0
:1029B3003C25EE4E3CA554DD3CE15C8E3CC66705F0
:1029C3003C8E37FD3CF190273CF76D423CDBF8A28F
:1029D3003D0DFF013D16F12B3D3D9B8C3D3640B334
:1029E300BD56114DBD38E705BD36E59CBD22023805
:1029F300BD01A73FBD028C31BCF02CAFBCC36AF450
:102A0300BCB93710BC92DA72BC6A1C48BC57C91DEA
:102A1300BC33D6E4BC612E14BC3F5431BC215731C6
:102A2300BC0F4135BC3B40E7BC639029BC533CEA37
:102A3300BC7410F5BC96F91BBCAF0D2CBCB6B1AE83
:102A4300BCD34A90BCF4F88FBD068BF4BD142C6341
:102A5300BD2888A6BD45E014BD588880BD6F4E6370
:102A6300BD7ED90BBD8E7DF6BD92C26ABD9E2CA4E0
:102A7300BDB0FE3BBDB69EA9BDC93F98BDD2C5132F
:102A8300BCC2D166BCBDEDF8BCBCDC94BCBAD5E31A
:102A9300BCB66C5FBCB90D10BCB9DBC0BCBCF57671
:102AA300BCC0A636BCC315DBBCCC4BBEBCD1E790C7
:102AB300BCDBB4DEBCE27006BCEDC291BCF8A18BFA
:102AC300BD034726BD0A4CB6BD120622BD1A1CE63D
:102AD300BD233D02BD2CBF0ABD360E96BD41702CF1
:102AE300BD4A957CBD54468FBD60FE33BD6BBABCF9
:102AF300BD769FEABD808E86BD86C178BD8CA1055B
:102B0300BD9310DDBD98BB32BD9EF50BBDA4701304
:102B1300BDAB40E8BDB04B2FBDB6B774BDBCE589B6
:102B2300BD1EA2B7BCFDE90DBCCEA555BCA3E514E3
:102B3300BC57C4CFBBC695123AC85B573BA56FB908
:102B43003C645B1A3C9DB9D13CCEFD4F3CF2DDBAEF
:102B53003D0AF6403D175B1E3D33A71F3D3A41F941
:102B63003D48D35A3D5026193D61723C3D73330EA7
:102B73003D6C78C73D7E6E453D7092E83D7690A1F1
:102B83003D8175923D745F163D6F2DEC3D663EB100
:102B93003D6882AE3D56444D3D3CB64A3D34C73355
:102BA3003D1D00343D07F1353CFE99AB3CE04489C3
:102BB3003C92C4423C472ABF3B578660BB8AC8DC71
:102BC3003E32C6DB3E2EB91B3E2ACF2B3E26EA37CA
:102BD3003E2323223E1F6FCA3E1BD6433E18570B8C
:102BE3003E14F2EE3E11AFB83E0E82EE3E0B6FEA9C
:102BF3003E087A4D3E05A62F3E02DF0B3E003C8386
:102C03003DFB54193DF654073DF18BFE3DECCE31AF
:102C13003DE836153DE3A9733DDF24723DDA97277E
:102C23003DD605613DD161703DCC86703DC7A3ACF7
:102C33003DC279933DBD3FF63DB7624E3DB22D8710
:102C43003DAC525C3DA6122C3D9EDD573D9847831B
:102C53003D9235F43D8B59DB3D8266B03D78AE82C3
:102C63003C74FDA73C67233C3C55CC7C3C659E846F
:102C73003C4F66923C5C98A53C41FD4D3C534DD87E
:102C83003C3C9F803C4457E53C2DC5293C35EFC86F
:102C93003C3C62983C3516B53C4353853C3BF95E5E
:102CA3003C377D553C2452DB3C2E98A93C0C9AB80A
:102CB3003C1A69A23C14E17B3BE54B3C3BDF08A695
:102CC3003BE1941C3BB15EEA3B8C63C23B0A13E6D7
:102CD30039A5AEF3B9A771C9BB4BCBE4BBA7BD2DD7
:102CE300BBBF54FBBC1739C1BC2EFF8CBC72A3AF56
:102CF300BC86C4C1BCA497DABCB09F91BCCB8A206C
:102D03003CF284F53CE7BE403C6406C43C6288A7C1
:102D13003C82032A3C23D2CE3B5717063B49C1DEF4
:102D2300BB8B0446BB544F4DBA2F7ACFBC80AA014C
:102D3300BC32F8C2BC79BFA0BC533A67BCCFAC77F6
:102D4300BCE1A063BCE8C238BCAE2DDABCE1829B17
:102D5300BCF96765BD0302E7BD11CDD3BD2220F3E6
:102D6300BD1A1D5ABD11F0D9BD1CF304BCF51CE0FE
:102D7300BCF12B00BD03F525BD13ACE3BD19F1CDAB
:102D8300BD225C6ABCD7E552BCE29B07BCD8B0C18C
:102D9300BD088612BCF40211BCBD03D2BCC3BF5232
:102DA300BD459A64BD2705FFBD04C3A7BD01C1840A
:102DB300BCBF97BABC92E534BC424E79BC6F875E08
:102DC300BC057421BA1B7D38BB38A9103C0C9C95FB
:102DD3003C30F5803B6463643C2453183C241AA3C1
:102DE3003C4D58023C69A1283C48C74A3C8B37FFFD
:102DF3003C4C39C53C8A94103CACDB363CB0A65AFB
:102E03003C7587C73CA9115C3C953C073CA28430C8
:102E13003C5A89B03C81C3E73C12B0813C501ECC84
:102E23003C20FE623BD8B3A53C594B8E3C63CA8A17
:102E33003C5E46723C2E95E53BFA54723C27F1DD2D
:102E4300BDD399D3BDCD7A90BDC790F1BDC1CF1885
:102E5300BDBC461BBDB702CCBDB21162BDAD793A54
:102E6300BDA9460EBDA580FCBDA231A5BD9F69C409
:102E7300BD9D25E9BD9B7AD1BD9A63E7BD99EB9DC5
:102E8300BD9A179FBD9AEC20BD9C6CABBD9E9BFB6E
:102E9300BDA17BA7BDA50B00BDA94DDDBDAE3ACC41
:102EA300BDB3DC29BDBA1F2EBDC113FABDC8A12F06
:102EB300BDD0C5A9BDD97E77BDE2D89CBDECA8CB5A
:102EC300BDF6F0B8BE00D706BE067140BE0C366331
:102ED300BE1222EABE183B3BBE1E702BBE24BF723D
:102EE300BD1D7E71BD19A324BD161405BD12F14588
:102EF300BD0FE4AABD0D573ABD0B2C01BD097831B6
:102F0300BD07FBE1BD071121BD06AB05BD069FA7AC
:102F1300BD0701EDBD07F051BD098947BD0B8F8981
:102F2300BD0E1343BD10CA41BD146A3FBD17EB8EDE
:102F3300BD1C671DBD210C6DBD25B250BD2B2F8758
:102F4300BD30BCD0BD365457BD3C84D1BD422EEDFF
:102F5300BD48BAC4BD4F0EB2BD55425EBD5B3F73A3
:102F6300BD6122C5BD67866CBD6D254DBD72740FF5
:102F7300BD77E917BD7D0A8EBD80BC45BD82D0BE3D
:102F8300BBF2C3A2BB83D216B9AA9A733B0D056EDB
:102F93003BD58E563BF49C593C3BBD1D3C5784614D
:102FA3003C915D8D3CA6B7623CB923693CC2B6B384
:102FB3003CE749793CEAD5113CF83FD53D0CCEF5C9
:102FC3003D1198B73D16F5003D1673973D141FACA0
:102FD3003D1F6A4F3D1FE9DF3D1EFEDD3D1B87D2CE
:102FE3003D1DE3B23D175B5C3D179D9C3D0CCA4EF6
:102FF3003D04EC833CFFF0D83CDF147E3CC5A9576D
:103003003CB822233C8D094B3C7F97023C27648FBD
:103013003BA0155A39BCADBDBB84ADABBC423FCC64
:10302300BCEE92D2BD01EA4DBD0CCEBFBCC97E77CA
:10303300BCE17F0ABCD2B0ECBCE0EA48BCB38C185C
:10304300BCC361A8BC98EC58BCAA86E9BC80B6593D
:10305300BC386725BBA99938BC587232BC25FA46DF
:10306300BB06CFB139EC3FDA3B377D8ABA2702B9C9
:103073003B31E4653BC4CFA43C14A91D3C8AF21642
:103083003C698B273C7798963C9E09433C9D518431
:103093003CA99D303D0117CA3CCC98E83D0B8166A5
:1030A3003D15F0EF3D0C62A73D1395363D21128C83
:1030B3003D2AE0813D43FC093D413BE43D3FDF8543
:1030C300BD95540FBD8F1FC4BD88EBEEBD826A3121
:1030D300BD79BC79BD6E9E69BD63E2EFBD59C7582A
:1030E300BD4F89D5BD481CEBBD3F84E3BD385507B3
:1030F300BD31F2B7BD2DFA21BD299A16BD269ECE4C
:10310300BD23D7C7BD2341F6BD21B373BD23A39907
:10311300BD2550A9BD279C2EBD2A7E57BD2ED98E15
:10312300BD320DA7BD382725BD3D0B80BD452020F1
:10313300BD4C0351BD533BF7BD599868BD636F1B2D
:10314300BD6BC329BD73A316BD7BB699BD818E48E4
:10315300BD862D68BD89897CBD8DB833BD91257031
:10316300BC5B494FBC598706BC56D7A4BC48D19217
:10317300BC48E8B0BC3D8D26BC2FD6F2BC2FB204B0
:10318300BC2C213EBC1DF78DBC0D8B81BC16ABAB9B
:10319300BC09DCD1BC0408EFBC08F684BC0849AC0C
:1031A300BBE2EC5CBBEBA9C1BC063FEFBC05B72C93
:1031B300BC06EC9CBC020212BC0C0385BC24FA6660
:1031C300BC2E9E45BC334FF0BC4AB291BC6865949B
:1031D300BC78BBC3BC87CA45BC976D5BBCA55F8F7E
:1031E300BCBDCCD7BCD400C5BCE07611BCFEF5B0E9
:1031F300BD0AD0BFBD178ADCBD2455E0BD2FD3FE69
:103203003DC5AEEB3DBE54933DAF5E193DA72B8C40
:103213003D9CC22A3D95249E3D8C964D3D81C2E73F
:103223003D7A8BCC3D6882143D5C01773D567D270A
:103233003D4FE4913D43DA2C3D3F4E203D3CC07869
:103243003D3C07063D36554A3D33E58A3D3C26F570
:103253003D3A17543D423DE03D4FBBB73D4FD08F04
:103263003D5F645F3D6A308E3D76A1EE3D821FC5B2
:103273003D8777A93D904DEF3D9A6D853DA627A3E8
:103283003DABCB5F3DBA424B3DC51BB63DCBDFC229
:103293003DDB54F13DE7AECB3DF118753DFC71CDFF
:1032A300BCC93DF1BCC09701BCB70F74BCB0F023DF
:1032B300BCAA168ABCA301FEBC9E791EBC9907500A
:1032C300BC95F569BC8FDECABC8D08FFBC8C15D7D5
:1032D300BC88DB51BC86E215BC865827BC83C2A2DE
:1032E300BC806CECBC83299EBC813F13BC8126F758
:1032F300BC7B5A99BC7BE33CBC7CBA9EBC76E03D6C
:10330300BC7F34AABC7A98C9BC7C8FDCBC7C235AB2
:10331300BC809092BC7AB6BBBC7E0D3FBC8110A230
:10332300BC828211BC801FBABC86A796BC880A38AF
:10333300BC87A56DBC8BCD70BC8FBDC0BC9237DD87
:103343003CA1F8D03C8BFA8F3C74DBC83C4CB2E018
:103353003C292CAB3C0B18863BD777AB3B9A5627C3
:103363003B4553BA3AC697E639320DAFBAB0F9CCFA
:10337300BB1FE79ABB6E8729BB935384BBAA5E78B6
:10338300BBC0CBBEBBC85F39BBDDF57CBBE2A18D47
:10339300BBDB9724BBCBF177BBC70485BBAEF49BE8
:1033A300BB8BBA5ABB3BAD8DBAE1B647B8FA8FBAFD
:1033B3003AD941833B8E42853BDFB38B3C1B96D18D
:1033C3003C50C0A83C82AB6F3CA0D2E23CC1540D40
:1033D3003CE8166A3D06FFDD3D19C2433D3191C508
:1033E300BC65C516BC34D34BBBFC5415BB9A38C85B
:1033F300BB34FDD239B23E003B4740C73BABF3D3AE
:103403003BF854F33C2176E83C40E61D3C648238AB
:103413003C6F45F33C85CFCB3C9201053C9D6ACB89
:103423003CA1CA803CA359473CACDA013CADD57FF3
:103433003CA9A7673CA67A763CA116293CA0E5AC3B
:103443003C93F9EF3C8E0BBE3C82A15F3C6DCD54A7
:103453003C42F2283C1F8CE23C0102FC3BBCF410D2
:103463003B2E885CB9FDB795BB3DB560BBDFF86506
:10347300BC243977BC662898BC90800FBCAEB30BD4
:103483003C2C6C14B9734EF5B8947A763B23C71E63
:10349300BADEA342B9620EA8BB18425FBB956013A4
:1034A300BC2F7119BC7368DFBC8CDAD1BCB5FD824B
:1034B300BCE99351BD029BCFBCE33F05BD02EB19B1
:1034C300BD238066BD276267BD4BB6B2BD45161EE0
:1034D300BD5188C8BD5C57F3BD81900CBD8E2DF6E0
:1034E300BD8A8BE1BD9F09A3BDA14A37BDAC04775B
:1034F300BDB63CF0BDB62781BDB89C49BDC658D406
:10350300BDCC6DD1BDD56565BDD9B0BEBDDB59524E
:10351300BDD9A400BDD99509BDE9A862BDEEFBDC08
:10352300BE12135FBDFD70D8BDF73262BDD59B6976
:10353300BDD74B88BDBAC6F9BD9FC936BD9790F8B4
:10354300BD8671D2BD70E5A5BD41E5A1BD0CA070DE
:10355300BCE6D606BCB330A6BC61E417BC2014405D
:10356300BC0535183B1EB9E63C6971583C7EC1A8C1
:103573003CB9BB633CBD9A523CDC00553D08B210DC
:103583003D0391C63D316EB13D33D0D83D3D6082A0
:103593003D46E6AB3D2C35CF3D395C2C3D436DDFDD
:1035A3003D4794C63D3CB40D3D3850713D21E38801
:1035B3003D15D1EC3D018F3C3CCEC2CD3C8016ACD9
:1035C300BDAD1B65BDADF88ABDAE65E2BDAE7DF494
:1035D300BDAE2A65BDADBA0EBDAD0E84BDABF5FE65
:1035E300BDAA7141BDA8A4E0BDA65E74BDA3EFC68C
:1035F300BDA10944BD9DD0EDBD9A2005BD9667F6DA
:10360300BD922EDBBD8DC1BEBD8929D3BD843B8A4E
:10361300BD7E5B01BD740338BD691EF9BD5E6741A4
:10362300BD536A76BD484903BD3D3ECABD32569679
:10363300BD276418BD1D1D29BD12DD91BD0943AA17
:10364300BCFFEF09BCEE78B2BCDDC97BBCCF17C5AC
:10365300BCC1CB01BCB5AB15BCAB5F12BCA29A8697
:10366300BDCE510CBDC5582ABDBCAECDBDB4393499
:10367300BDAC193DBDA44920BD9CBC39BD95763375
:10368300BD8EE323BD889962BD828CA1BD7AE258C9
:10369300BD7162EFBD68CABBBD6125C0BD5B498E0C
:1036A300BD561F4BBD527EE3BD4FDE9ABD4E710129
:1036B300BD4E2030BD4F4B75BD51497CBD54D2E941
:1036C300BD590DA7BD5EF397BD6570F0BD6D833029
:1036D300BD766CCDBD8024FDBD857672BD8B29552D
:1036E300BD914248BD97B9F8BD9ECDDCBDA601FC96
:1036F300BDAD65B5BDB52FB8BDBD162EBDC50A435D
:103703003AD22E94B81AC513BB297816BB61470F5A
:10371300BBBBAA3DBC012218BC285099BC3B4D7BC6
:10372300BC60B2C3BC851D50BC8F5025BC9A0F6DC5
:10373300BCADB863BCB74147BCC40105BCD08F71F5
:10374300BCE1EE53BCEB1F3FBCF61A76BCFFBC01D9
:10375300BD00BD2BBD01B2C3BD0D10BCBD093B16E1
:10376300BD0F5365BD1588BDBD133969BD17A47D54
:10377300BD1BDF6FBD1B34E4BD21CC80BD221BA864
:10378300BD213D85BD23959FBD29301ABD29DA9002
:10379300BD283EC5BD2B207EBD2B9D1EBD29B80C6B
:1037A3003DB648163DB043223DA9998A3DA1FEFD91
:1037B3003D9BDA6A3D956C6D3D9068F93D8B3868A9
:1037C3003D84F8303D809E333D7765913D701CBC50
:1037D3003D65A3D63D61DF203D5A5B053D54D6BA16
:1037E3003D513D603D4BF9243D4AB2093D473647C3
:1037F3003D46B27B3D470A533D44C86E3D46A6E273
:103803003D49BA8C3D4D624E3D5042F63D55432FE6
:103813003D5AB27D3D61F31E3D67B2733D703D710C
:103823003D7808F43D80EEA63D8593523D8A1B2DDD
:103833003D8F47043D9640A73D9B095A3DA150ABA0
:103843003DAFFB363D959D5E3DA1998E3D983283FC
:103853003D84DB633D879EBA3D7544773D62A59504
:103863003D6138EA3D595B253D3528513D32430FD3
:103873003D0F75CE3CD68F683CE09B873CD79225A5
:103883003C712E083C4180543C789D183BEB2584C9
:10389300B934ED32BA6CB188BC086F7EBC5C1C983D
:1038A300BC410DA8BC38D07FBC853009BC80BAA50B
:1038B300BC8E658CBCAC0CA5BCCF9580BCFB14AF97
:1038C300BD06C184BD17F0DEBD158179BD105789D2
:1038D300BD154CD3BD215727BD2CF11EBD25C17588
:1038E300BDE89529BDF09777BDF80211BDFDFDE058
:1038F300BE015BB6BE03A298BE0506F0BE06367CCB
:10390300BE06D719BE06EC76BE067F07BE05897CC8
:10391300BE0432AEBE026225BE000456BDFAB448F0
:10392300BDF46425BDED3CADBDE558C6BDDCB44971
:10393300BDD35FFFBDC96512BDBED096BDB3AC6C30
:10394300BDA80AEBBD9BE872BD8F6F2ABD82923181
:10395300BD6AAA8ABD4FD3E6BD345DFBBD18B3DA99
:10396300BCF9FA25BCC1469ABC893CCDBC20A1F563
:10397300BB46CCCC3B77D12E3C2FB1963C8D99E8FE
:10398300BD3D9218BD28E87FBD30809BBD589ABAD3
:10399300BD5A899ABD6F49CDBD720A2CBD55A7F199
:1039A300BD4D0923BD5891ECBD6A7E21BD60F8F180
:1039B300BD73220ABD5EC467BD4DB114BD508113F2
:1039C300BD3A8858BD2DE3F1BD4AF5B7BD3E0BF6B0
:1039D300BD1F38F9BD160067BD0CB322BCD8A49E29
:1039E300BCB79C60BCD7F52ABCB15C1BBC70293545
:1039F300BBFBF618BC010D22BA3AA3B3BA4B68EC71
:103A03003C0F475A3C1B17453C86E3AD3CDE3DCAA1
:103A13003D074DDE3D08D0913D285FD53D255FCB69
:103A2300BD421BCEBD48C12ABD4D7AD9BD5BC1B5D0
:103A3300BD64DC26BD6CE59EBD736929BD7C0F8C1E
:103A4300BD834F77BD87F876BD8F1BC7BD946CC10F
:103A5300BD973026BD9D452DBDA3C65BBDA883F68E
:103A6300BDAE069BBDB2C0ECBDB753D1BDBA3B568C
:103A7300BDC05126BDC53FC8BDC99E6EBDCD71B188
:103A8300BDD1C2B3BDD6CE23BDDA24D5BDDBC18F34
:103A9300BDE1C3F1BDE51861BDE8529DBDEB4D5FCE
:103AA300BDED0669BDF20AAFBDF60805BDF8F9A67E
:103AB300BDFA5E62BDFFC407BE00314FBE033E24A4
:103AC3003DF9BEFD3DED1F9A3DDEB4333DD50250B9
:103AD3003DC816E93DBBE7E53DAE870A3D987F4FFC
:103AE3003D8E39443D8470F13D75DEC33D5916CAA0
:103AF3003D3D3CFF3D27669E3D195DA73D04B6FB5A
:103B03003CE218C73CCBBDDE3CAEBA7E3C878CC5DD
:103B13003C7F69FD3C3B9D7F3BB7C3E43BBF6FF6F6
:103B23003B595AA03A206F5D3A60C1993B1C23F47C
:103B3300BAE04EB53B052979BACC0AC13B6414748B
:103B43003B85DE2E3B75E51B3B91D7EF3C2D632474
:103B53003C3354DA3C7A69A23CABF82C3CC4548223
:103B6300BC0079B3BC12C343BC219617BC2F1BD630
:103B7300BC3F7B2FBC5A9A3CBC62C0F1BC764EFD65
:103B8300BC8829A1BC9722CFBCA1FDD2BCB0486B95
:103B9300BCBCD256BCCE2299BCD8D278BCF114B7E7
:103BA300BCFA7B0CBD050CCCBD0F673ABD1A6A632A
:103BB300BD21B83CBD28300EBD353612BD3DD37195
:103BC300BD463D2CBD511353BD5AE066BD6444222E
:103BD300BD702552BD7D7B83BD82D68EBD87C72632
:103BE300BD8D6F56BD9280A2BD97370BBD9D46C557
:103BF300BDA1EBBEBDA629D3BDAD517FBDB1C103F0
:103C03003CC29D853CC6B2353C664A453C6C8486C5
:103C13003C8F60033C48B7F93C1D1B413C025B925F
:103C23003BC8B229389048B8BB39974CBA881E1C98
:103C3300BBF7EED1BB2EBC1EBBD7DE25BC05D437EC
:103C4300BB43C43BBBD6DC7DBC02212CBC3EEF3561
:103C5300BC12B99B3A8F6CF9B9807177BAC4ED5A2B
:103C6300BC0B14A2BB4ADE69BBA476663BD38BA311
:103C73003B6DDC113C20958D3B8961AD3B3668EA99
:103C83003AFD620D3BFB745C3BFD6D333C06F9D89A
:103C93003C88F3343C9F73DC3CB183EF3CD2DE9C25
:103CA300BD6908CFBD6666FBBD5A972FBD72E71F7E
:103CB300BD6A3FF4BD705D38BD6DFEFABD67DD0CB6
:103CC300BD608723BD733F24BD79826CBD70C980FD
:103CD300BD7C6A10BD695F09BD6FFF85BD779A0E14
:103CE300BD7B1247BD7EEDF0BD825257BD867DF28E
:103CF300BD84A73EBD85182BBD8557AFBD876DA776
:103D0300BD8F9D09BD8BB031BD8B30F4BD8F20BB02
:103D1300BD95AB97BD97F9B5BD8F4634BD98762F4A
:103D2300BD91E329BD93F7A9BD959CECBD909BF292
:103D3300BD97FCFCBD9ABC66BD9953FABD99EC25B1
:103D4300BD9994D6BD94B1EABD90A3EFBD8BC1A339
:103D5300BD87A105BD81DE2ABD7D3BBEBD74660561
:103D6300BD6E9218BD69D20FBD61DAF3BD5C8041AF
:103D7300BD58FB8ABD5554A1BD514E6DBD4E2A2F72
:103D8300BD4E56A2BD4A030CBD4C008BBD4952E14A
:103D9300BD4A4517BD4EE9C5BD515BACBD54D245C7
:103DA300BD598ED4BD61E415BD6487C4BD6E862D37
:103DB300BD7366EEBD7E0275BD835521BD885AB5C0
:103DC300BD90B718BD94974BBD9D638CBDA412D411
:103DD300BDAA8918BDB2695ABDB87509BDC0C77CF3
:103DE3003CD4932D3CD8289E3CDA0B7D3CD9D86F2C
:103DF3003CD798A23CDE867C3CD923033CDCA95902
:103E03003CD7E7413CDC9D4C3CDA778E3CDDF8F552
:103E13003CDD8E9A3CD9D3F63CD89E883CD7B5B2CC
:103E23003CD725113CD7BA573CD9FB0F3CD8D141DD
:103E33003CD86D023CD836513CD991D73CD8E76584
:103E43003CDAE5F43CE1F40D3CE3C3BE3CE8B38962
:103E53003CE619043CEE30613CF07DB13CF6E703EF
:103E63003CFE22493D03DCC63D07A41A3D0AF391FB
:103E73003D100FA03D1224FE3D1784EB3D1D850B25
:103E8300BD4A3BACBD3C682BBD2A3B09BD17D2DE06
:103E9300BD08998EBCFCE022BCDE126BBCC20B05D4
:103EA300BCAE4AF1BCA0723DBC954C1FBC88BC465D
:103EB300BC6B746FBC52CB80BC4FC904BC32311F86
:103EC300BC380E47BC31C76ABC28B20CBC46A2E260
:103ED300BC471B52BC6527BFBC740DA0BC7DAC891D
:103EE300BC8A63BABCA02E04BCAE3CB1BCC750FCB8
:103EF300BCCED8B0BCF0F599BCFC40F9BD09BF2FCE
:103F0300BD19AF00BD274FCEBD33A6DEBD3F5D96C5
:103F1300BD452E5CBD59A3F6BD62D36BBD7214E0E3
:103F23003CED53E83CF074413CF44F473CFB0F1B22
:103F33003CFD85B53D0068253D0225C53D03F0598F
:103F43003D04347E3D0625743D075C043D087161E4
:103F53003D0841913D098CA63D08F81B3D08F373CC
:103F63003D08D2333D083A393D0770123D075010E2
:103F73003D06FD713D0680F43D0517213D0287E3B3
:103F83003D02030C3D00535A3CFD80403CF6EE05D8
:103F93003CF401983CEE5FA53CEA59C53CE5583832
:103FA3003CDEC40A3CD7F6013CD2DD503CCA8CC986
:103FB3003CC4AED33CBE37933CB6D68C3CADE1B5E6
:103FC3003D64EE5E3DB9C12B3D9376243D247204DE
:103FD3003D3AD3B53CC1D62B3CCAA4A93CD8B4FFC7
:103FE3003D01627C3D1E9D373D5637B23D2B96F613
:103FF3003C16CC9E3D1F6EE13CAEC5FD3D026D35CA
:104003003D1559763D4E81D83CC141AC3CDDE0F0D5
:104013003CC3E22F3D6A64B83D31009A3D344E25DE
:104023003D0AC2243D1DE8A53D1C07883D87399004
:104033003D2A1EE13D5AAC0F3D94A5D23D5ED8A367
:104043003D4DDE673DAB7AC03DA4107C3DBA755A49
:104053003DCA48A33DAAAF213D9640EC3D9265651C
:104063003D8945DE3DB9127A3D9CE31E3D44995F8F
:104073003DA9310D3D952DCA3D70E4A33D4A3ECA8D
:104083003D5DA5A03D9D2BE13CDBE5043D7831C4BE
:104093003D4C291F3D84E12B3D6A33B13C297922F4
:1040A3003C31EB5D3D0633D23C676DF33D1EFF05AE
:1040B3003D0C5D5A3B0EE5063CC2F2713CE2F0C496
:1040C3003CBE49493D455C803BA495153D47264888
:1040D3003BEFFF863D4691B63D3E488C3C22EF4286
:1040E3003D686F833D04FC2E3D570B833D13B9F0B0
:1040F3003D935B773D6C64873D50F0F23D92060C37
:104103003DAF5EB73DA2A7783DA32C793D984CE126
:104113003D9020583D8C9D543D881E2B3D8486BD8B
:104123003D76695E3D64D63B3D59EB1E3D5A37A350
:104133003D4899A73D4767A73D3E73683D33EE97DA
:104143003D2824263D1DB6523D1BDC8E3D0C022628
:104153003D0889BD3D0EF6623D0B26293CF11184D5
:104163003D06123F3CFA7B0E3CFD8EBC3D027A8439
:104173003CF9FDFA3D05001B3D09772A3D10900BE4
:104183003D110FE03D25D3B93D35B3703D38D3A87C
:104193003D3E9A3E3D53FE0B3D6B46403D76388493
:1041A3003D0A5E8B3D0524EA3D00647A3CF81034F9
:1041B3003CF040193CE964D73CE395033CDECA5D1F
:1041C3003CDB28C13CD8B7563CD758EA3CD7343CF3
:1041D3003CD835403CDA66693CDDD3FA3CE25FF417
:1041E3003CE8106B3CEEDE533CF6C4983CFFB2B3A4
:1041F3003D04CFD83D0A3EA33D101EF63D1669B0DF
:104203003D1D123A3D2412C93D2B60603D32F04FF3
:104213003D3AC1C83D42BBA33D4ADC1B3D531A7E18
:104223003D5B69A43D63C26A3D6C13F63D745B98C4
:104233003D7C8CC33D8251253D8646ED3D8A2388D6
:10424300BCB642C0BCB497F1BCB53184BCB2B3B107
:10425300BCB18207BCAE6A70BCAEAFE9BCAB009820
:10426300BCA79F5ABCA642F9BCA2067BBC9FE13403
:10427300BC9F4936BC9AB721BC992413BC95DEC4B4
:10428300BC91048CBC8EB969BC8CE33DBC87D376EE
:10429300BC839FACBC8166D0BC7E4799BC7585C985
:1042A300BC6D9AF5BC651ED7BC5CCB6EBC547CB1AF
:1042B300BC4C0637BC43C58FBC395EC2BC2DBD2D7B
:1042C300BC20E790BC15E3A8BC097887BBF001B21A
:1042D300BBD68D15BBAEAF96BB909B09BB5925E1F1
:1042E300BC7875C8BC5ABE7EBC3D22DABC21647D55
:1042F300BC055492BBD6593BBB9D70C9BB56C97B09
:10430300BAECB74EB9A04D343A8C09A83B18BF7626
:104313003B6BCF693B97E23B3BB7E93B3BD611FF96
:104323003BF164B63C0430513C0E7CDF3C157DAD63
:104333003C1CD29B3C1F63943C21A2963C22086701
:104343003C1E7FD43C1B66A53C13FF5F3C0A66C141
:104353003BFFA0783BE766C83BC877193BA5023211
:104363003B8275AA3B3214F23AA98B54B95F899BFD
:10437300BAFB43E1BB6AF4D2BBB2287ABBF24B521D
:104383003CBF4EA43D039CBD3C8A38F13CB088B988
:104393003CBFCC043CA9F6153BA046E33AE35DD50C
:1043A300BB13AE7CBADA47E83A3E151B3BA1B14BCF
:1043B300BB766C1C3AE2BE0CBC32D0093B8A08A91E
:1043C3003AA4E33EBC937BFF3ADA5271BA732EAE42
:1043D300BC1D78F9B7FE2CC1BBC54598BBF94FD1BD
:1043E3003BC8AE5E3B4902E93AB346133992CE4E1F
:1043F300BBFEFE40BAC3DA243C00D7443B926A5268
:104403003CB33CB13CE883D83C993D9D3CF42762E6
:104413003D0056B33D3B6E4E3D275FEC3D1B0A8985
:10442300BE1FFB3CBE109FDDBE04DEF2BDF6BD9099
:10443300BDD53D1BBDCAD880BDAD0643BDA14698C1
:10444300BD8A971ABD79D440BD4CF65ABD3011349C
:10445300BD110267BCE63FA1BCD2FEC3BCABA01634
:10446300BC95290DBC70DDAABC12FED3BBD68F59F7
:10447300BC0D9C2EBC167E88BBBBE085BC3CCD200E
:10448300BC35582DBC7BE4C5BC87F474BCCC49BB9C
:10449300BCDB298DBD098BF2BD2C1E29BD3B69E612
:1044A300BD666A8CBD87AAFEBD9866ECBDB347F0B6
:1044B300BDC70BADBDE02E22BDFB4D1BBE061C4888
:1044C3003E0BAF3E3E04A5AC3DF9919F3DEFEFD2CD
:1044D3003DE00CBD3DCF19423DBDA33B3DAD35395C
:1044E3003D9E4EDA3D93139A3D808D663D78E33BC6
:1044F3003D5238BE3D424A973D38CC9D3D33959B56
:104503003D27990A3D1AFE173D0A77BA3D0BE6038C
:104513003CFAFB153CF6AE683D071A103D0A53DF23
:104523003D04A0A63D1555873D276CA33D345F0B85
:104533003D408CCE3D5672EE3D5ED5DC3D75DDFAD9
:104543003D88AF543D931A923D9E8CDB3DAB7A94EC
:104553003DB5F2D23DC87B163DD0CB073DE2E80C1A
:10456300BCBFA8B2BCB35FDBBCA801E5BC9DAFEF89
:10457300BC94535FBC8BE9EABC84568EBC7B3BB4D2
:10458300BC6F3E4EBC652A4EBC5C8870BC555E99C0
:10459300BC4F7DC9BC4AD541BC47AD7EBC45A75184
:1045A300BC44BB9DBC44F180BC463621BC48738FE0
:1045B300BC4BD34CBC50155ABC5572DFBC5BCFC54A
:1045C300BC6338A3BC6B3FE0BC7472EABC7EDFF013
:1045D300BC852A11BC8B56C5BC91FDC9BC9956C676
:1045E300BCA11B38BCA981F3BCB2A3BBBCBC758402
:1045F300BCC68C1FBCD1A14CBCDD3388BCE9835E37
:104603003CD306803CB4BE373C97EB7F3C78D9FF64
:104613003C44D5C43C13CEA43BCB018F3B69BBA424
:104623003A94E519BA93EFD9BB50F363BBA50031B4
:10463300BBDB884DBC058813BC19C7FBBC2A65FBD3
:10464300BC373CB4BC407CC5BC456C04BC46BBE336
:10465300BC43B07CBC3C6DCFBC3083C2BC20427435
:10466300BC0B3D8ABBE2C941BBA528DEBB3AAC9774
:10467300B9B607303B22887C3BB8A62F3C1586F29F
:104683003C5427E53C8C4A143CB13D8F3CD928F679
:104693003D01E6DB3D1896733D30CFB13D4A53CB28
:1046A300BC80D478BC4AACA9BC15729BBBC2AF0713
:1046B300BB3DF52138965DA53B408F233BB688DE95
:1046C3003C053FAF3C2C060E3C4FDB613C70BED635
:1046D3003C8680DD3C93FDEA3C9F13C83CA8B14275
:1046E3003CB093AA3CB64B223CB96C423CBB5C0742
:1046F3003CBBAE5F3CB935273CB4D1A03CAE1108FE
:104703003CA688913C9C23673C8F6B413C80A37201
:104713003C6194363C3D964F3C15B70D3BD27B4FE5
:104723003B67AC1D3A046DFDBB380595BBCD905975
:10473300BC211136BC5F085DBC8FE4EABCB1D15A21
:10474300BD450749BD32C432BD320CD0BD0E831204
:10475300BD1A1FDABD1AB2CFBD172CBDBD05043D6E
:10476300BD098C44BCCE23A6BCE70A08BCB4807246
:10477300BCB259ECBCDCAF6DBCC3C295BCB34D65D8
:10478300BC972F53BCB41B18BC6C2649BC3DEC6DC5
:10479300BC3BF809BC596A95BC0B25EEBC6D3CB318
:1047A300BC45065BBB5C6BC4BC484AB6BC350B7FDF
:1047B300BC1DEA8CBA76D81FB92580C7BBB872086E
:1047C300BB6542B23B4F3D553B8AFBADBB097448C9
:1047D3003B9EA99B3BA2FBC53B501DDD39353C628B
:1047E3003C6D77C43C776B3E3C921AFE3B64F4A16C
:1047F3003B15A0913B73F22F3C27DFEABAB592B881
:104803003B2909A8BB418F12BA357144BB319B4385
:10481300BB7AB7DB38A7249DBC521935BB27E152BD
:104823003AA1C99CBC01FB16BC212E92BBE9C69CD4
:10483300BB996503BC1B3439BAD27163BB60FEC438
:104843003B4E0C4EBB24645BBC12DC563BC6567716
:104853003BC4A3823C23E4963BF546263BABE31DD6
:104863003BEC7D773CA11DF93C82B8993D07E518E7
:104873003D0A806B3D3CF7FD3D461D1A3D3A48D746
:10488300BC882EF6BC266A97BC09BEEBBB08CBA737
:10489300BC003528BB030C87BB2CD6113B58F01347
:1048A3003C04DF003BE7B84B3C0782F23C28C9EDF0
:1048B3003C5151D03C96DC983C9D6FF53CB1BEE534
:1048C3003CBF450D3CC96CEC3CA5F08F3CA7EA18F6
:1048D3003CD42DCC3C8879583C9159F23CB26BF7CF
:1048E3003CA8CA053C9B28493C9A978C3C5739B451
:1048F3003C68E2BD3C082D853C1F2CD83C02C079A6
:104903003BB144753B6FC716BA0D9F07B8ADA4E919
:10491300BBFD885DBC0E5A1EBC908B0EBCA59BCE06
:10492300BC82B600BC873AD6BC8C5AE9BC929407C9
:10493300BC979488BC9F87E1BCA5978BBCAB276EC3
:10494300BCB3128BBCBB79BFBCC1D3EEBCC8FC34B7
:10495300BCD17059BCD89B30BCDF4D5EBCE7E5C70A
:10496300BCF06389BCF779D2BCFFABFABD039146B7
:10497300BD0766D2BD0BA869BD0F6906BD129D3484
:10498300BD163C55BD19BD54BD1CFF2EBD2051D6CF
:10499300BD2305CFBD263132BD28E968BD2BC40137
:1049A300BD2E47AEBD30754EBD32320FBD34295DCD
:1049B300BD34B14ABD36CEE7BD372E00BD386D4A92
:1049C3003C8CD0113C897E973C84DB993C881B78D6
:1049D3003C7702E43C641D413C5E18733C69236BE5
:1049E3003C4AD3D43C59D0903C412A1B3C2F40E055
:1049F3003C37855F3C0E93B83C18B3B73BF0139735
:104A03003BEC1DBA3BE366BE3BAE1E473BAE0EA27C
:104A13003B69605F3B60B14A3B56FED53AB9990B9F
:104A230039BA2352399AA7D03953185AB8CF32D941
:104A3300BB1CCB5FBB0CDEE1BB7E6099BB77CDDCDF
:104A4300BB476F7CBB9F2FEFBBA0375EBBC29055AC
:104A5300BB9A9834BB8ABC19BBAB2E73BBBEF7CBD6
:104A63003BC16EC03B9296813B558B513ACA87AC92
:104A73003A18BFAABA74C1DEBB09B52DBB6971AFC1
:104A8300BB96C28DBBB6A8E7BBDEBD18BBF3E16C1A
:104A9300BC0FB0F6BC1628EFBC231CB0BC322A1FD7
:104AA300BC3922CBBC3E2710BC488E6BBC4843EFBD
:104AB300BC4CBBBFBC5175E1BC4F6C64BC51E9DA63
:104AC300BC505FE8BC4864D8BC4144D4BC3F76CA00
:104AD300BC34217ABC25CF57BC1D3065BC0E3004D5
:104AE300BC02C92DBBE18934BBC15C83BB9D862756
:104AF300BB81567BBB24AE46BA90B73F391B6C4F84
:104B03003DD43FC33DCE52B03DC550223DADD75EEF
:104B13003DAAF1E43DA0D20E3D9A24F53D9425F043
:104B23003D86828B3D81877C3D70024E3D5B623CBE
:104B33003D5CDDE13D38A7753D4025103D252591C0
:104B43003D3204473D1B2FF93D2973FD3D1613915B
:104B53003D0FB2FF3D18D2DB3D00F2C63D0F196A8F
:104B63003CEA50AC3CE82E773D100F3D3D0313EE7D
:104B73003D0090A53D089F593D03985C3D2140773A
:104B83003D1263BE3D1CA9AC3D1FDE733D369C8DBB
:104B93003D319D3E3D3B307A3D55DAC73D55E86C8E
:104BA300BC49489ABC6452AABBFF0F16BBE5DA06A0
:104BB300BA98B70A3A20163E3B8C7FA23BDB1224FD
:104BC3003C274FFC3C44BEFD3C8DD9173C99E88DF6
:104BD3003CBAD37D3CC595B03CE520F03CFD740563
:104BE3003CFE90443D0C088B3D11DFC23D1F79070D
:104BF3003D2B28493D25C5833D34B7C13D438EC177
:104C03003D4DC4433D55D2133D4262643D5ABBBA48
:104C13003D52D3563D5108933D62B1A43D53A65C2A
:104C23003D4E0F233D5D4E563D55BB843D5409DE3D
:104C33003D5DBF203D53DAEB3D583D903D3BC46D98
:104C43003CD587F73CE1CC6F3CC595AD3CAA4F20E2
:104C53003CAD0BB93C8F29143C9C1CB23C75343FD2
:104C63003C46A2513C578D223C1E1C953C4F920A58
:104C73003C15ADBD3C32D5033BE3CC273BD0940080
:104C83003C0501603C27B2BC3BCC352B3BEDBC392A
:104C93003C25882A3C10BB473C4BE6823C4C4DBD2F
:104CA3003C4E2C453C7994B63CA6DA393CB8F27EAE
:104CB3003CAC9AB03CD709B43CE8EB913D04158F6A
:104CC3003D168AE73D22912D3D2E3AA53D469DBED8
:104CD3003D5346263D6B80BB3D8593213D8AD16C78
:104CE300BC8E093CBC9C16A4BCBEDDBEBCCBC3E1E0
:104CF300BCDA04D9BCD00EBFBCEA6C44BCF6BDFE22
:104D0300BD03800ABD0356E7BD0A97C0BD0BAB0BBD
:104D1300BD0EA421BD1722FEBD180A3FBD1868743D
:104D2300BD186E3ABD1CED4BBD26A60EBD25F6F88B
:104D3300BD2C04C7BD25B117BD328C89BD3428F104
:104D4300BD33280DBD33F0CCBD2B72F9BD3720F137
:104D5300BD36ABB0BD304DBABD31553BBD366D32FE
:104D6300BD4268B3BD3A63C2BD3C0087BD40E9E8BC
:104D7300BD456A9CBD455CB1BD3E32E6BD47817A07
:104D83003D7861943D5C2F1E3D4D509E3D3ACCE7EE
:104D93003D206A013D1A8C8A3D0246953CE1306311
:104DA3003CDE18043CC272F83CB6431A3CA9CADF85
:104DB3003C9657433C86DB083C8D133B3C61823673
:104DC3003C623CB73C8AA45D3C7D9F123C8E270429
:104DD3003C95B3303CA48B823CA7F3A63CC45290D1
:104DE3003CEFDA333CEC293A3D08EB383D17A0D3CE
:104DF3003D25ADE53D2FC41A3D3A9D5C3D53B55766
:104E03003D575FF53D6371C53D7E9DD43D84CA59D1
:104E13003D8CD12F3D9337D23D99666E3DA458BA50
:104E2300BD0E67F8BD14D0AABD1B8E87BD218616A3
:104E3300BD2488EEBD297DFBBD2B4911BD2DFA0A8A
:104E4300BD3397B8BD377ED6BD38F1B7BD378E4871
:104E5300BD3B8702BD3D04D8BD3B0F79BD3BA3F2EB
:104E6300BD392481BD399783BD3770A6BD34AE16D5
:104E7300BD31CE67BD293934BD281292BD222CEB3A
:104E8300BD1E851BBD18D5AABD1347A8BD0A343B5B
:104E9300BD02CE5EBCF6B7C1BCE80AAABCD8E5DD4C
:104EA300BCC5F994BCAB8A7ABC99FABABC8C58706D
:104EB300BC5B1DD3BC345E63BC0C4745BBA8010C73
:104EC300BCF827C5BCEA59F1BCEF5DFABD046751D4
:104ED300BD0E2797BD13D5A1BD22BBE4BD1F67CA75
:104EE300BD1DC6F5BD2B6844BD2FC71BBD267ED295
:104EF300BD366EBABD309CA3BD24C996BD26162C03
:104F0300BD3AB04EBD27E1A2BD28761FBD2A95E369
:104F1300BD281A35BD32A912BD2FD348BD3383AE88
:104F2300BD2572FEBD247ED7BD27E27ABD1F39069B
:104F3300BD10C57BBD0F84D5BD210363BD0EE088C5
:104F4300BD12BB37BD0B872ABD08BEA7BD0D55DEFD
:104F5300BD1689A2BD12C184BD018D04BD0F583198
:104F63003D94072A3D93BD163D5C9C123D7A834ACE
:104F73003D4B52B33D3FC5BD3D1633FA3D25CB9264
:104F83003CF6FC093CCAB9373CFEC1C63C8C042341
:104F93003C82C55D3CA7BFAC3C57F4D43C031DF435
:104FA3003CA6E32F3BD2BD633BAE62FD3C6F6DC6B7
:104FB3003C75AD1D3C8A718C3CA666F83CB9B8D1F2
:104FC3003C55A1613CCC66C83CB519D03CA37B5B86
:104FD3003CC945693CC9E8F63CECF23B3D291591D7
:104FE3003D148FCA3D52BAF83D4514913D65DB0D22
:104FF3003D70BDD83D6912D23D763B483D998B8EBD
:10500300BD46923ABD417C26BD3D1627BD339B2D3F
:10501300BD2DC786BD2BA482BD2816C9BD23CC7365
:10502300BD1C407FBD1D3DC4BD175E9ABD11EA077F
:10503300BD150F67BD0C8F48BD0A97FEBD0D012A34
:10504300BD0BB453BD0B02D6BD07C76CBD0B043EED
:10505300BD0D73F1BD0E8FACBD109D1DBD126E95C0
:10506300BD12022FBD135162BD172F97BD194F9863
:10507300BD215C11BD263402BD29237ABD2F20F644
:10508300BD3540DCBD3A44BEBD40D915BD4BF642EB
:10509300BD4F05F0BD5AE09DBD60F363BD69F0E50A
:1050A3003D3DB46D3D5F792D3D21D7873C976A0225
:1050B3003CE73CE13CB18C943D0DE2B03C28CFACE5
:1050C3003CD5C6343D24E4E2BC111C98BC2B5235BC
:1050D3003BA305603D19195E3CF0E8AD3C908AE1C5
:1050E3003CBDB3603C06BE39BC2429AB3CE9CFF3DD
:1050F3003C54B8583C862E54BC2F7EFEBC42C35948
:10510300BCCCB280BC3035463C08E82DBCD6CD398A
:10511300BC83D5CA3C25C1633CDF24ED3CE52FC0ED
:105123003CA02E00BCF77860BCD37BCC3CA0BCDE9B
:10513300BCEA260B3BC700653D0DC0553CD1BAA266
:105143003D70B27C3D39C8D53D122A413D24FAD980
:105153003CC38FDE3CCDA77E3BD1A2B33CA6FB9BD9
:105163003CE4F024BC15350C3CA2D83DBC554DEDB8
:10517300BC3FC2FA3B81B06439B2E875BCACCCB079
:10518300BB1476B8BCD71642BC9587D6BD161D4F47
:10519300BC2BCDFEBC6A915EBCE93877BC00AE0285
:1051A300BC652287BC8621AABC1DF6A9BC88667C87
:1051B300BC1DFC6C3BD58921B9E8C5B83AB28082E5
:1051C3003CC2BB1C3C6880EC3CE5786F3D375B061A
:1051D3003D243A643D8B30CA3D8815D53D84EF1D8F
:1051E3003C9283503C8E88973C6422913C19F35443
:1051F3003C8D3BDA3C6FF5693CFCA0A83CCD1D3BE4
:105203003CB9F65E3D0AD6D33CBA2AC23CBFC8CEEF
:105213003D1F906F3D1B10F03D11FFD13D355032C6
:105223003D1A0D523D1F6E363D2245123D26247C0C
:105233003D4A1F483D285D1E3D519D533D1F1EC2E3
:105243003D427DB03D292FE03D36E7473D3BC37EE0
:105253003D3DF9033D1692503D2A1D3F3D3E112130
:105263003D05B81E3D2860A93D076ECB3D16414D57
:105273003CCBB2163CF2D1013CFBCB8C3CC15B77FF
:105283003CEC19CC3CFC6ED83D0070773D074FAD2C
:105293003D0F25743D147FB83D16E99F3D1A00F379
:1052A3003D20F5533D2011913D21C7A63D27F6D65C
:1052B3003D2A37F03D2A90DB3D2C936A3D2BC49168
:1052C3003D2D5CFE3D2C55463D28C8023D28B8AB1C
:1052D3003D28B7AD3D2303FF3D21DC343D1CA7F141
:1052E3003D1C73A13D1CD0EE3D17A3D33D1320BE3F
:1052F3003D1516693D108D1E3D0F83A03D0BDB410F
:105303003D0B15D03D02C4AF3D079EF83D01490753
:105313003D031DF73D00EE743D0323213CFDF407DF
:10532300BD8E74E1BD885763BD7961A7BD58A9C619
:10533300BD4AEA82BD370216BD1ECEC7BD0C0AFEAA
:10534300BD02ECA7BCE8D4C0BCCF825ABCA958D6D6
:10535300BCA1628EBC895B03BC826C46BC4816C987
:10536300BC32F2A4BC487F33BC2B9698BC3B40BFF5
:10537300BC46E5ACBC3DB89CBC533333BC66487BF0
:10538300BC743442BC914D64BCA2DC42BCB1DBA60C
:10539300BCC041B6BCEE2617BCF0198FBD11D6A90F
:1053A300BD1BCA0DBD2C91B9BD385827BD4BC304D5
:1053B300BD593AA3BD726111BD7F33D7BD8B22495D
:1053C3003D407BDF3D3A96B93D347DD33D2E728718
:1053D3003D2A6B323D2537DC3D204C3C3D1921F500
:1053E3003D16897B3D11AA973D0E17D33D087C6B73
:1053F3003D0550893D03ECE63D03512B3CFE434BF9
:105403003CFC2BFA3CFF78203CFDCDA63CFDA1AB38
:105413003D01C39C3D02E26F3D046E993D06F62CAF
:105423003D0AC4763D0FBA883D1249F13D196B64BC
:105433003D1DA6563D23A7C63D28ED563D2F969507
:105443003D37BB8E3D4227183D4A92783D5194E04B
:105453003D5ABCFD3D6395D03D6E4ABA3D768949C0
:10546300BD32DA87BD34A1EABD13CD15BD0B49CAE0
:10547300BD11E121BCCEEA88BCFE24C2BCD9D0490F
:10548300BC8C2189BC9C423DBC47831CBC27B1D149
:10549300BC68B60ABC314765BC1D1C33BB6C88E6CF
:1054A300BBD89816BB636E20BBBDDB02BB519038E3
:1054B300BBD720723AD19F78BB17C3ECBB42363DB2
:1054C300BBDB6E8ABADC0727BBF581B3BB8656808C
:1054D300BC410DD5BC5EB6F3BC2B6EA6BC1BA7DAD4
:1054E300BC72EB0FBC9AC135BC9DC57FBCA965449A
:1054F300BC6073D6BC919BD2BCD8B5D3BCC6B64DE9
:10550300BD46606EBD2788A3BD1D4068BD15767F6F
:10551300BD002F67BCF38CB8BCD34659BCD2308BCB
:10552300BCA1175DBC80737FBC61398FBC33A5F60A
:10553300BBE39F12BC24DAE4BB9C408FBC195FEA37
:10554300BB721709BB48D6213B49FA393BD113DB60
:105553003BADB4B33A289F93BA2774233B23F5B1E9
:10556300B7EE3C893B0BE736B9C0DB973B08D93133
:10557300BB5F7F9CBC02829DBB842662BBC8BAAB67
:10558300BC8D37FABC745999BC9C8EC4BCEF3117DF
:10559300BD16B462BD24E7C8BD436B06BD539F1D52
:1055A300BC29BA0ABC3D6D5FBC4913B9BC5219652D
:1055B300BC68D710BC78C790BC82B5F2BC89169C76
:1055C300BC90FCE6BC9CB52ABCA55CB5BCAB7C64BA
:1055D300BCB59F1ABCBDA2ECBCC4CF45BCD14F66C1
:1055E300BCD7F29BBCDFD334BCE69ADCBCEDA6325D
:1055F300BCF5D51ABCFC007FBD016697BD02AD0AA0
:10560300BD073CF3BD085500BD0C77CDBD0DF4CBF4
:10561300BD10D14ABD118A6ABD13529ABD14240C20
:10562300BD145132BD14574CBD15178CBD16C2A8FD
:10563300BD169567BD14812EBD15D65DBD14E47BE3
:105643003CE899253D0922803D060DB63D08EBC493
:105653003D13D9D03D13FB653D18BCFC3D35567E4B
:105663003D3C4D9D3D4852D03D518B4D3D60DB6EE1
:105673003D73A27B3D7B774B3D8FBCBC3D960F9426
:105683003D9D26513DA562323DAA75543DBC120B8A
:105693003DC7CACB3DCD584E3DDA85863DE6106BFE
:1056A3003DE866743DF9195A3DFF060F3E04D6D412
:1056B3003E093BAE3E1126373E11CBA83E1AC18DA3
:1056C3003E1F45D63E2262083E26EA8F3E2AF89EBA
:1056D3003E30ECEC3E33C4703E3999BC3E3C0FB5D2
:1056E300BE1C1F28BE1402ACBE06474EBE0A842C45
:1056F300BDF3E545BDCEA713BDDEB8DDBDCD7BA2B1
:10570300BDC78BD0BD97488BBD879178BD9805FEEB
:10571300BD583968BD80F53ABD670E69BD49A351CF
:10572300BD0B7099BD1D92A1BCB3BBE4BCF67885DB
:10573300BCEACB20BC946E5ABB09C928BB3AF26BB6
:105743003A9D3E95BB36CA75BC3A1462BA71FF25C1
:10575300BC0D0281B6E1D243BB9EEBA2BC2CE18F10
:10576300BC997C76BCD13149BC768DF6BCF68318E6
:10577300BCA3AFE1BD28E816BD0D7B2ABD3D4FD5C7
:10578300BCFC69B1BCC65F3ABCD81618BCCE327734
:10579300BC75B5D3BC7BF075BC4F5BE2BBD1F8B134
:1057A300BB8121C0BBBC5E1BBB1C08523C3FD9362E
:1057B3003C2F598A3C47881E3CA6F34D3CBACCA1EA
:1057C3003CDD7ADD3CFF1E643CCF88E93D05F223D6
:1057D3003CED02663D05C9DB3D2871A93D40B86338
:1057E3003D38DEF23D49A4733D4961953D4CDDB83A
:1057F3003D7205413D62F66A3D7789BC3D76467D43
:105803003D767C683D71E7293D877AE33D8C5C1FDB
:105813003D818D0E3D7F1A753D8A38F53D8DAEB1C4
:105823003D0746323D05CD783D00C5113D04E351AA
:105833003D0311DB3D05594F3CFD4DAD3D071CD2EA
:105843003D07B38E3CF8CE4E3D00F9A53D03595EAE
:105853003CF662053CF5CBA63CF74BA23CEE680553
:105863003CFB384A3CEECDDA3CF2A47A3CF0D793C9
:105873003CE478783CDEAAC13CE165153CE4A42015
:105883003CE441E73CD3DF493CD8CA223CD62BC693
:105893003CDE88FB3CDB82D43CD1F8CC3CDF814D41
:1058A3003CD10B4F3CDC70353CDFB46E3CE1CBC4E8
:1058B3003CECE1773CECE60C3D05CB1B3D02CE7A9C
:1058C300BD84BBD0BD721A20BD6080E1BD4C95EA9A
:1058D300BD316D9BBD1C7756BD09065DBCF1E5B5B9
:1058E300BCC6D619BCA82ED8BC92D1ABBC5C116384
:1058F300BC37D59EBC42C9B3BC0A3901BBE7147996
:10590300BBD9AA24BB4BB41EBBAFAF03BB450674C4
:10591300BB80E323BB9EFEA0BBA01185BC04340364
:10592300BBCA7594BC3097B1BC6467F2BC83BB9BA4
:10593300BC945480BCB5622CBCCB331CBCE9C5D62B
:10594300BCF5396FBD0B1AE7BD28276ABD2EF78C4E
:10595300BD479038BD647624BD793C3CBD88598DE4
:105963003D2C24423D2680C23D1F61683D18D05B1B
:105973003D10212B3D0AA1913D044E693D00314F5D
:105983003CF46DB63CEAE47B3CDF4DCB3CD930A123
:105993003CD4FCAE3CCC15763CC3CE5B3CC9B73B98
:1059A3003CC21B413CC70CED3CC9D7CA3CC99C8FC8
:1059B3003CCD768F3CC83BB73CD430D63CD898E737
:1059C3003CE2AC113CED0A673CEF1ECE3CFAE738F3
:1059D3003D04618A3D0D1A193D13B42B3D1D010E83
:1059E3003D2758FC3D2E827E3D35E6C33D3FF6F70D
:1059F3003D4C33FB3D582A123D5D60693D693F04D0
:105A0300BD62A3CBBD675CE2BD6685AABD676B8043
:105A1300BD6A7E2BBD6767FCBD6A62E7BD6A92B54E
:105A2300BD6760A6BD6A7984BD672BACBD63BB2C23
:105A3300BD6710F2BD6215E5BD5FCE2BBD5F52772A
:105A4300BD5D69BCBD5A3CD5BD58A200BD51D67BD6
:105A5300BD4EA2D2BD49F132BD48B5B2BD42071E0B
:105A6300BD3DE7C2BD3B322FBD32E7C8BD2DC25796
:105A7300BD288443BD22B145BD1CC8F9BD189A0792
:105A8300BD103894BD0A5B06BCFF8457BCFAAFB3A4
:105A9300BCEE4D66BCE5B1E8BCD61AA2BCC101CCD4
:105AA3003C0466443BEBEFA13BCBE4D23B84A049EF
:105AB3003B680D383B5329143AB1795F3ACAE3B6D0
:105AC3003A6FEDFE38C01960BAE07AC3BB19996228
